{"abi":[{"type":"constructor","inputs":[],"stateMutability":"nonpayable"},{"type":"function","name":"UPGRADE_INTERFACE_VERSION","inputs":[],"outputs":[{"name":"","type":"string","internalType":"string"}],"stateMutability":"view"},{"type":"function","name":"addMinter","inputs":[{"name":"minter","type":"address","internalType":"address"}],"outputs":[],"stateMutability":"nonpayable"},{"type":"function","name":"allowance","inputs":[{"name":"owner","type":"address","internalType":"address"},{"name":"spender","type":"address","internalType":"address"}],"outputs":[{"name":"","type":"uint256","internalType":"uint256"}],"stateMutability":"view"},{"type":"function","name":"approve","inputs":[{"name":"spender","type":"address","internalType":"address"},{"name":"value","type":"uint256","internalType":"uint256"}],"outputs":[{"name":"","type":"bool","internalType":"bool"}],"stateMutability":"nonpayable"},{"type":"function","name":"authorizedMinters","inputs":[{"name":"","type":"address","internalType":"address"}],"outputs":[{"name":"","type":"bool","internalType":"bool"}],"stateMutability":"view"},{"type":"function","name":"balanceOf","inputs":[{"name":"account","type":"address","internalType":"address"}],"outputs":[{"name":"","type":"uint256","internalType":"uint256"}],"stateMutability":"view"},{"type":"function","name":"burn","inputs":[{"name":"amount","type":"uint256","internalType":"uint256"}],"outputs":[],"stateMutability":"nonpayable"},{"type":"function","name":"burnFrom","inputs":[{"name":"from","type":"address","internalType":"address"},{"name":"amount","type":"uint256","internalType":"uint256"}],"outputs":[],"stateMutability":"nonpayable"},{"type":"function","name":"decimals","inputs":[],"outputs":[{"name":"","type":"uint8","internalType":"uint8"}],"stateMutability":"view"},{"type":"function","name":"initialize","inputs":[],"outputs":[],"stateMutability":"nonpayable"},{"type":"function","name":"isMinter","inputs":[{"name":"minter","type":"address","internalType":"address"}],"outputs":[{"name":"","type":"bool","internalType":"bool"}],"stateMutability":"view"},{"type":"function","name":"mint","inputs":[{"name":"to","type":"address","internalType":"address"},{"name":"amount","type":"uint256","internalType":"uint256"}],"outputs":[],"stateMutability":"nonpayable"},{"type":"function","name":"name","inputs":[],"outputs":[{"name":"","type":"string","internalType":"string"}],"stateMutability":"view"},{"type":"function","name":"owner","inputs":[],"outputs":[{"name":"","type":"address","internalType":"address"}],"stateMutability":"view"},{"type":"function","name":"proxiableUUID","inputs":[],"outputs":[{"name":"","type":"bytes32","internalType":"bytes32"}],"stateMutability":"view"},{"type":"function","name":"removeMinter","inputs":[{"name":"minter","type":"address","internalType":"address"}],"outputs":[],"stateMutability":"nonpayable"},{"type":"function","name":"renounceOwnership","inputs":[],"outputs":[],"stateMutability":"nonpayable"},{"type":"function","name":"symbol","inputs":[],"outputs":[{"name":"","type":"string","internalType":"string"}],"stateMutability":"view"},{"type":"function","name":"totalSupply","inputs":[],"outputs":[{"name":"","type":"uint256","internalType":"uint256"}],"stateMutability":"view"},{"type":"function","name":"transfer","inputs":[{"name":"to","type":"address","internalType":"address"},{"name":"value","type":"uint256","internalType":"uint256"}],"outputs":[{"name":"","type":"bool","internalType":"bool"}],"stateMutability":"nonpayable"},{"type":"function","name":"transferFrom","inputs":[{"name":"from","type":"address","internalType":"address"},{"name":"to","type":"address","internalType":"address"},{"name":"value","type":"uint256","internalType":"uint256"}],"outputs":[{"name":"","type":"bool","internalType":"bool"}],"stateMutability":"nonpayable"},{"type":"function","name":"transferOwnership","inputs":[{"name":"newOwner","type":"address","internalType":"address"}],"outputs":[],"stateMutability":"nonpayable"},{"type":"function","name":"upgradeToAndCall","inputs":[{"name":"newImplementation","type":"address","internalType":"address"},{"name":"data","type":"bytes","internalType":"bytes"}],"outputs":[],"stateMutability":"payable"},{"type":"function","name":"version","inputs":[],"outputs":[{"name":"","type":"string","internalType":"string"}],"stateMutability":"pure"},{"type":"event","name":"Approval","inputs":[{"name":"owner","type":"address","indexed":true,"internalType":"address"},{"name":"spender","type":"address","indexed":true,"internalType":"address"},{"name":"value","type":"uint256","indexed":false,"internalType":"uint256"}],"anonymous":false},{"type":"event","name":"Initialized","inputs":[{"name":"version","type":"uint64","indexed":false,"internalType":"uint64"}],"anonymous":false},{"type":"event","name":"MinterAdded","inputs":[{"name":"minter","type":"address","indexed":true,"internalType":"address"}],"anonymous":false},{"type":"event","name":"MinterRemoved","inputs":[{"name":"minter","type":"address","indexed":true,"internalType":"address"}],"anonymous":false},{"type":"event","name":"OwnershipTransferred","inputs":[{"name":"previousOwner","type":"address","indexed":true,"internalType":"address"},{"name":"newOwner","type":"address","indexed":true,"internalType":"address"}],"anonymous":false},{"type":"event","name":"TokensBurned","inputs":[{"name":"from","type":"address","indexed":true,"internalType":"address"},{"name":"amount","type":"uint256","indexed":false,"internalType":"uint256"}],"anonymous":false},{"type":"event","name":"TokensMinted","inputs":[{"name":"to","type":"address","indexed":true,"internalType":"address"},{"name":"amount","type":"uint256","indexed":false,"internalType":"uint256"},{"name":"minter","type":"address","indexed":true,"internalType":"address"}],"anonymous":false},{"type":"event","name":"Transfer","inputs":[{"name":"from","type":"address","indexed":true,"internalType":"address"},{"name":"to","type":"address","indexed":true,"internalType":"address"},{"name":"value","type":"uint256","indexed":false,"internalType":"uint256"}],"anonymous":false},{"type":"event","name":"Upgraded","inputs":[{"name":"implementation","type":"address","indexed":true,"internalType":"address"}],"anonymous":false},{"type":"error","name":"AddressEmptyCode","inputs":[{"name":"target","type":"address","internalType":"address"}]},{"type":"error","name":"ERC1967InvalidImplementation","inputs":[{"name":"implementation","type":"address","internalType":"address"}]},{"type":"error","name":"ERC1967NonPayable","inputs":[]},{"type":"error","name":"ERC20InsufficientAllowance","inputs":[{"name":"spender","type":"address","internalType":"address"},{"name":"allowance","type":"uint256","internalType":"uint256"},{"name":"needed","type":"uint256","internalType":"uint256"}]},{"type":"error","name":"ERC20InsufficientBalance","inputs":[{"name":"sender","type":"address","internalType":"address"},{"name":"balance","type":"uint256","internalType":"uint256"},{"name":"needed","type":"uint256","internalType":"uint256"}]},{"type":"error","name":"ERC20InvalidApprover","inputs":[{"name":"approver","type":"address","internalType":"address"}]},{"type":"error","name":"ERC20InvalidReceiver","inputs":[{"name":"receiver","type":"address","internalType":"address"}]},{"type":"error","name":"ERC20InvalidSender","inputs":[{"name":"sender","type":"address","internalType":"address"}]},{"type":"error","name":"ERC20InvalidSpender","inputs":[{"name":"spender","type":"address","internalType":"address"}]},{"type":"error","name":"FailedCall","inputs":[]},{"type":"error","name":"InsufficientBalance","inputs":[]},{"type":"error","name":"InvalidInitialization","inputs":[]},{"type":"error","name":"NotAuthorizedMinter","inputs":[]},{"type":"error","name":"NotInitializing","inputs":[]},{"type":"error","name":"OwnableInvalidOwner","inputs":[{"name":"owner","type":"address","internalType":"address"}]},{"type":"error","name":"OwnableUnauthorizedAccount","inputs":[{"name":"account","type":"address","internalType":"address"}]},{"type":"error","name":"UUPSUnauthorizedCallContext","inputs":[]},{"type":"error","name":"UUPSUnsupportedProxiableUUID","inputs":[{"name":"slot","type":"bytes32","internalType":"bytes32"}]},{"type":"error","name":"ZeroAddress","inputs":[]},{"type":"error","name":"ZeroAmount","inputs":[]}],"bytecode":{"object":"0x60a080604052346100c257306080525f5160206116a85f395f51905f525460ff8160401c166100b3576002600160401b03196001600160401b03821601610060575b6040516115e190816100c78239608051818181610a280152610af80152f35b6001600160401b0319166001600160401b039081175f5160206116a85f395f51905f525581527fc7f505b2f371ae2175ee4913f4499e1f2633a7b5936321eed1cdaeb6115181d290602090a15f80610041565b63f92ee8a960e01b5f5260045ffd5b5f80fdfe60806040526004361015610011575f80fd5b5f3560e01c806306fdde0314611043578063095ea7b314610fc457806318160ddd14610f9b57806323b872dd14610ec35780633092afd514610e5e578063313ce56714610e4357806340c10f1914610d1e57806342966c6814610cad5780634f1ef28614610a7c57806352d1902d14610a1657806354fd4d50146109d757806370a0823114610993578063715018a61461092c57806379cc6790146108695780638129fc1c146103e45780638da5cb5b146103b057806395d89b41146102c2578063983b2d5614610247578063a9059cbb14610216578063aa271e1a146101da578063aa2fe91b146101da578063ad3cb1cc14610197578063dd62ed3e146101505763f2fde38b14610121575f80fd5b3461014c57602036600319011261014c5761014a61013d61112a565b610145611359565b611204565b005b5f80fd5b3461014c57604036600319011261014c5761016961112a565b61017a610174611140565b91611194565b9060018060a01b03165f52602052602060405f2054604051908152f35b3461014c575f36600319011261014c576101d66040516101b8604082611156565b60058152640352e302e360dc1b602082015260405191829182611100565b0390f35b3461014c57602036600319011261014c576001600160a01b036101fb61112a565b165f525f602052602060ff60405f2054166040519015158152f35b3461014c57604036600319011261014c5761023c61023261112a565b6024359033611275565b602060405160018152f35b3461014c57602036600319011261014c5761026061112a565b610268611359565b6001600160a01b031680156102b357805f525f60205260405f20600160ff198254161790557f6ae172837ea30b801fbfcdd4108aa1d5bf8ff775444fd70256b44e6bf3dfc3f65f80a2005b63d92e233d60e01b5f5260045ffd5b3461014c575f36600319011261014c576040515f5f51602061150c5f395f51905f52546102ee816111cc565b808452906001811690811561038c5750600114610322575b6101d68361031681850382611156565b60405191829182611100565b5f51602061150c5f395f51905f525f9081527f46a2803e59a4de4e7a4c574b1243f25977ac4c77d5a1a4a609b5394cebb4a2aa939250905b80821061037257509091508101602001610316610306565b91926001816020925483858801015201910190929161035a565b60ff191660208086019190915291151560051b840190910191506103169050610306565b3461014c575f36600319011261014c575f51602061152c5f395f51905f52546040516001600160a01b039091168152602090f35b3461014c575f36600319011261014c575f51602061158c5f395f51905f525460ff8160401c16159067ffffffffffffffff811680159081610861575b6001149081610857575b15908161084e575b5061083f5767ffffffffffffffff1981166001175f51602061158c5f395f51905f525581610813575b5060409081519161046c8184611156565b60158352744d6f6e6164204d6f6e7374657220436f6f6b69657360581b602084015280519161049b8284611156565b6007835266434f4f4b49455360c81b60208401526104b7611442565b6104bf611442565b835167ffffffffffffffff811161070a576104e75f5160206114cc5f395f51905f52546111cc565b601f81116107a4575b50602094601f8211600114610729579481929394955f9261071e575b50508160011b915f199060031b1c1916175f5160206114cc5f395f51905f52555b825167ffffffffffffffff811161070a576105555f51602061150c5f395f51905f52546111cc565b601f811161069b575b506020601f821160011461062057819293945f92610615575b50508160011b915f199060031b1c1916175f51602061150c5f395f51905f52555b6105a0611442565b6105a8611442565b6105b133611204565b6105b9611442565b6105bf57005b60207fc7f505b2f371ae2175ee4913f4499e1f2633a7b5936321eed1cdaeb6115181d29168ff0000000000000000195f51602061158c5f395f51905f5254165f51602061158c5f395f51905f52555160018152a1005b015190508480610577565b601f198216905f51602061150c5f395f51905f525f52805f20915f5b8181106106835750958360019596971061066b575b505050811b015f51602061150c5f395f51905f5255610598565b01515f1960f88460031b161c19169055848080610651565b9192602060018192868b01518155019401920161063c565b5f51602061150c5f395f51905f525f527f46a2803e59a4de4e7a4c574b1243f25977ac4c77d5a1a4a609b5394cebb4a2aa601f830160051c81019160208410610700575b601f0160051c01905b8181106106f5575061055e565b5f81556001016106e8565b90915081906106df565b634e487b7160e01b5f52604160045260245ffd5b01519050858061050c565b601f198216955f5160206114cc5f395f51905f525f52805f20915f5b88811061078c57508360019596979810610774575b505050811b015f5160206114cc5f395f51905f525561052d565b01515f1960f88460031b161c1916905585808061075a565b91926020600181928685015181550194019201610745565b5f5160206114cc5f395f51905f525f527f2ae08a8e29253f69ac5d979a101956ab8f8d9d7ded63fa7a83b16fc47648eab0601f830160051c81019160208410610809575b601f0160051c01905b8181106107fe57506104f0565b5f81556001016107f1565b90915081906107e8565b68ffffffffffffffffff191668010000000000000001175f51602061158c5f395f51905f52558161045b565b63f92ee8a960e01b5f5260045ffd5b90501583610432565b303b15915061042a565b839150610420565b3461014c57604036600319011261014c5761088261112a565b602435335f525f60205260ff60405f2054161561091d57801561090e5760018060a01b03821691825f525f5160206114ec5f395f51905f526020528160405f2054106108ff57816108f67ffd38818f5291bf0bb3a2a48aadc06ba8757865d1dabd804585338aab3009dcb69360209361138c565b604051908152a2005b631e9acf1760e31b5f5260045ffd5b631f2a200560e01b5f5260045ffd5b63019a5d1d60e71b5f5260045ffd5b3461014c575f36600319011261014c57610944611359565b5f51602061152c5f395f51905f5280546001600160a01b031981169091555f906001600160a01b03167f8be0079c531659141344cd1fd0a4f28419497f9722a3daafe3b4186f6b6457e08280a3005b3461014c57602036600319011261014c576001600160a01b036109b461112a565b165f525f5160206114ec5f395f51905f52602052602060405f2054604051908152f35b3461014c575f36600319011261014c576101d66040516109f8604082611156565b60058152640312e302e360dc1b602082015260405191829182611100565b3461014c575f36600319011261014c577f00000000000000000000000000000000000000000000000000000000000000006001600160a01b03163003610a6d5760206040515f51602061156c5f395f51905f528152f35b63703e46dd60e11b5f5260045ffd5b604036600319011261014c57610a9061112a565b6024359067ffffffffffffffff821161014c573660238301121561014c57816004013590610abd82611178565b91610acb6040519384611156565b8083526020830193366024838301011161014c57815f926024602093018737840101526001600160a01b037f000000000000000000000000000000000000000000000000000000000000000016308114908115610c8b575b50610a6d57610b30611359565b6040516352d1902d60e01b81526001600160a01b0382169390602081600481885afa5f9181610c57575b50610b725784634c9c8ce360e01b5f5260045260245ffd5b805f51602061156c5f395f51905f52869203610c455750823b15610c33575f51602061156c5f395f51905f5280546001600160a01b031916821790557fbc7cd75a20ee27fd9adebab32041f755214dbc6bffa90cc0225b39da2e5c2d3b5f80a2825115610c1a575f809161014a945190845af43d15610c12573d91610bf683611178565b92610c046040519485611156565b83523d5f602085013e61146d565b60609161146d565b50505034610c2457005b63b398979f60e01b5f5260045ffd5b634c9c8ce360e01b5f5260045260245ffd5b632a87526960e21b5f5260045260245ffd5b9091506020813d602011610c83575b81610c7360209383611156565b8101031261014c57519086610b5a565b3d9150610c66565b5f51602061156c5f395f51905f52546001600160a01b03161415905084610b23565b3461014c57602036600319011261014c57600435801561090e57335f525f5160206114ec5f395f51905f526020528060405f2054106108ff57610cf0813361138c565b6040519081527ffd38818f5291bf0bb3a2a48aadc06ba8757865d1dabd804585338aab3009dcb660203392a2005b3461014c57604036600319011261014c57610d3761112a565b60243590335f525f60205260ff60405f2054161561091d576001600160a01b031680156102b357811561090e575f51602061154c5f395f51905f5254828101809111610e2f575f51602061154c5f395f51905f525580610e0c57815f51602061154c5f395f51905f5254035f51602061154c5f395f51905f52555b805f7fddf252ad1be2c89b69c2b068fc378daa952ba7f163c4a11628f55a4df523b3ef6020604051868152a36040519182527f969cd201f68f120baff2bf3c59bc3b534434e08b69a71a14ab85cb79cd3b63e460203393a3005b805f525f5160206114ec5f395f51905f5260205260405f20828154019055610db2565b634e487b7160e01b5f52601160045260245ffd5b3461014c575f36600319011261014c57602060405160128152f35b3461014c57602036600319011261014c57610e7761112a565b610e7f611359565b6001600160a01b03165f818152602081905260408120805460ff191690557fe94479a9f7e1952cc78f2d6baab678adc1b772d936c6583def489e524cb666929080a2005b3461014c57606036600319011261014c57610edc61112a565b610ee4611140565b60443590610ef183611194565b335f9081526020919091526040902054925f198410610f15575b61023c9350611275565b828410610f80576001600160a01b03811615610f6d573315610f5a5761023c93610f3e82611194565b60018060a01b0333165f526020528360405f2091039055610f0b565b634a1406b160e11b5f525f60045260245ffd5b63e602df0560e01b5f525f60045260245ffd5b8284637dc7a0d960e11b5f523360045260245260445260645ffd5b3461014c575f36600319011261014c5760205f51602061154c5f395f51905f5254604051908152f35b3461014c57604036600319011261014c57610fdd61112a565b602435903315610f6d576001600160a01b0316908115610f5a5761100033611194565b825f526020528060405f20556040519081527f8c5be1e5ebec7d5bd14f71427d1e84f3dd0314c0f7b2291e5b200ac8c7c3b92560203392a3602060405160018152f35b3461014c575f36600319011261014c576040515f5f5160206114cc5f395f51905f525461106f816111cc565b808452906001811690811561038c5750600114611096576101d68361031681850382611156565b5f5160206114cc5f395f51905f525f9081527f2ae08a8e29253f69ac5d979a101956ab8f8d9d7ded63fa7a83b16fc47648eab0939250905b8082106110e657509091508101602001610316610306565b9192600181602092548385880101520191019092916110ce565b602060409281835280519182918282860152018484015e5f828201840152601f01601f1916010190565b600435906001600160a01b038216820361014c57565b602435906001600160a01b038216820361014c57565b90601f8019910116810190811067ffffffffffffffff82111761070a57604052565b67ffffffffffffffff811161070a57601f01601f191660200190565b6001600160a01b03165f9081527f52c63247e1f47db19d5ce0460030c497f067ca4cebf71ba98eeadabe20bace016020526040902090565b90600182811c921680156111fa575b60208310146111e657565b634e487b7160e01b5f52602260045260245ffd5b91607f16916111db565b6001600160a01b03168015611262575f51602061152c5f395f51905f5280546001600160a01b0319811683179091556001600160a01b03167f8be0079c531659141344cd1fd0a4f28419497f9722a3daafe3b4186f6b6457e05f80a3565b631e4fbdf760e01b5f525f60045260245ffd5b6001600160a01b0316908115611346576001600160a01b031691821561133357815f525f5160206114ec5f395f51905f5260205260405f205481811061131a57817fddf252ad1be2c89b69c2b068fc378daa952ba7f163c4a11628f55a4df523b3ef92602092855f525f5160206114ec5f395f51905f5284520360405f2055845f525f5160206114ec5f395f51905f52825260405f20818154019055604051908152a3565b8263391434e360e21b5f5260045260245260445260645ffd5b63ec442f0560e01b5f525f60045260245ffd5b634b637e8f60e11b5f525f60045260245ffd5b5f51602061152c5f395f51905f52546001600160a01b0316330361137957565b63118cdaa760e01b5f523360045260245ffd5b9091906001600160a01b0316801561134657805f525f5160206114ec5f395f51905f5260205260405f2054838110611428576020845f94957fddf252ad1be2c89b69c2b068fc378daa952ba7f163c4a11628f55a4df523b3ef938587525f5160206114ec5f395f51905f528452036040862055805f51602061154c5f395f51905f5254035f51602061154c5f395f51905f5255604051908152a3565b915063391434e360e21b5f5260045260245260445260645ffd5b60ff5f51602061158c5f395f51905f525460401c161561145e57565b631afcd79f60e31b5f5260045ffd5b90611491575080511561148257805190602001fd5b63d6bda27560e01b5f5260045ffd5b815115806114c2575b6114a2575090565b639996b31560e01b5f9081526001600160a01b0391909116600452602490fd5b50803b1561149a56fe52c63247e1f47db19d5ce0460030c497f067ca4cebf71ba98eeadabe20bace0352c63247e1f47db19d5ce0460030c497f067ca4cebf71ba98eeadabe20bace0052c63247e1f47db19d5ce0460030c497f067ca4cebf71ba98eeadabe20bace049016d09d72d40fdae2fd8ceac6b6234c7706214fd39c1cd1e609a0528c19930052c63247e1f47db19d5ce0460030c497f067ca4cebf71ba98eeadabe20bace02360894a13ba1a3210667c828492db98dca3e2076cc3735a920a3ca505d382bbcf0c57e16840df040f15088dc2f81fe391c3923bec73e23a9662efc9c229c6a00a2646970667358221220953ae412095cce5f2d57a987712f2e77a7a62d309baa81a6acae9f2a8afdd2d164736f6c634300081c0033f0c57e16840df040f15088dc2f81fe391c3923bec73e23a9662efc9c229c6a00","linkReferences":{}},"methodIdentifiers":{"UPGRADE_INTERFACE_VERSION()":"ad3cb1cc","addMinter(address)":"983b2d56","allowance(address,address)":"dd62ed3e","approve(address,uint256)":"095ea7b3","authorizedMinters(address)":"aa2fe91b","balanceOf(address)":"70a08231","burn(uint256)":"42966c68","burnFrom(address,uint256)":"79cc6790","decimals()":"313ce567","initialize()":"8129fc1c","isMinter(address)":"aa271e1a","mint(address,uint256)":"40c10f19","name()":"06fdde03","owner()":"8da5cb5b","proxiableUUID()":"52d1902d","removeMinter(address)":"3092afd5","renounceOwnership()":"715018a6","symbol()":"95d89b41","totalSupply()":"18160ddd","transfer(address,uint256)":"a9059cbb","transferFrom(address,address,uint256)":"23b872dd","transferOwnership(address)":"f2fde38b","upgradeToAndCall(address,bytes)":"4f1ef286","version()":"54fd4d50"},"id":56}