{"abi":[{"type":"constructor","inputs":[],"stateMutability":"nonpayable"},{"type":"function","name":"UPGRADE_INTERFACE_VERSION","inputs":[],"outputs":[{"name":"","type":"string","internalType":"string"}],"stateMutability":"view"},{"type":"function","name":"activeExpeditions","inputs":[{"name":"","type":"uint256","internalType":"uint256"}],"outputs":[{"name":"tokenId","type":"uint256","internalType":"uint256"},{"name":"owner","type":"address","internalType":"address"},{"name":"startTime","type":"uint256","internalType":"uint256"},{"name":"duration","type":"uint256","internalType":"uint256"},{"name":"statType","type":"uint8","internalType":"enum ExpeditionCenter.StatType"},{"name":"cookiesCost","type":"uint256","internalType":"uint256"},{"name":"isActive","type":"bool","internalType":"bool"}],"stateMutability":"view"},{"type":"function","name":"calculateExpeditionGain","inputs":[{"name":"durationHours","type":"uint256","internalType":"uint256"},{"name":"statType","type":"uint8","internalType":"enum ExpeditionCenter.StatType"}],"outputs":[{"name":"gain","type":"uint256","internalType":"uint256"},{"name":"cost","type":"uint256","internalType":"uint256"}],"stateMutability":"view"},{"type":"function","name":"claimExpedition","inputs":[{"name":"tokenId","type":"uint256","internalType":"uint256"}],"outputs":[],"stateMutability":"nonpayable"},{"type":"function","name":"cookiesToken","inputs":[],"outputs":[{"name":"","type":"address","internalType":"contract IERC20"}],"stateMutability":"view"},{"type":"function","name":"durationCosts","inputs":[{"name":"","type":"uint256","internalType":"uint256"}],"outputs":[{"name":"","type":"uint256","internalType":"uint256"}],"stateMutability":"view"},{"type":"function","name":"emergencyCancelExpedition","inputs":[{"name":"tokenId","type":"uint256","internalType":"uint256"}],"outputs":[],"stateMutability":"nonpayable"},{"type":"function","name":"getExpeditionDetails","inputs":[{"name":"tokenId","type":"uint256","internalType":"uint256"}],"outputs":[{"name":"","type":"tuple","internalType":"struct ExpeditionCenter.Expedition","components":[{"name":"tokenId","type":"uint256","internalType":"uint256"},{"name":"owner","type":"address","internalType":"address"},{"name":"startTime","type":"uint256","internalType":"uint256"},{"name":"duration","type":"uint256","internalType":"uint256"},{"name":"statType","type":"uint8","internalType":"enum ExpeditionCenter.StatType"},{"name":"cookiesCost","type":"uint256","internalType":"uint256"},{"name":"isActive","type":"bool","internalType":"bool"}]}],"stateMutability":"view"},{"type":"function","name":"getExpeditionStatus","inputs":[{"name":"tokenId","type":"uint256","internalType":"uint256"}],"outputs":[{"name":"ready","type":"bool","internalType":"bool"},{"name":"remainingTime","type":"uint256","internalType":"uint256"}],"stateMutability":"view"},{"type":"function","name":"initialize","inputs":[{"name":"_nadmonNFT","type":"address","internalType":"address"},{"name":"_cookiesToken","type":"address","internalType":"address"},{"name":"_randomizer","type":"address","internalType":"address"}],"outputs":[],"stateMutability":"nonpayable"},{"type":"function","name":"isOnExpedition","inputs":[{"name":"","type":"uint256","internalType":"uint256"}],"outputs":[{"name":"","type":"bool","internalType":"bool"}],"stateMutability":"view"},{"type":"function","name":"nadmonNFT","inputs":[],"outputs":[{"name":"","type":"address","internalType":"contract INadmonNFT"}],"stateMutability":"view"},{"type":"function","name":"owner","inputs":[],"outputs":[{"name":"","type":"address","internalType":"address"}],"stateMutability":"view"},{"type":"function","name":"proxiableUUID","inputs":[],"outputs":[{"name":"","type":"bytes32","internalType":"bytes32"}],"stateMutability":"view"},{"type":"function","name":"randomizer","inputs":[],"outputs":[{"name":"","type":"address","internalType":"contract INadmonRandomizer"}],"stateMutability":"view"},{"type":"function","name":"renounceOwnership","inputs":[],"outputs":[],"stateMutability":"nonpayable"},{"type":"function","name":"sendToExpedition","inputs":[{"name":"tokenId","type":"uint256","internalType":"uint256"},{"name":"durationHours","type":"uint256","internalType":"uint256"},{"name":"statType","type":"uint8","internalType":"enum ExpeditionCenter.StatType"}],"outputs":[],"stateMutability":"nonpayable"},{"type":"function","name":"setDurationCost","inputs":[{"name":"durationHours","type":"uint256","internalType":"uint256"},{"name":"cost","type":"uint256","internalType":"uint256"}],"outputs":[],"stateMutability":"nonpayable"},{"type":"function","name":"setRandomizer","inputs":[{"name":"newRandomizer","type":"address","internalType":"address"}],"outputs":[],"stateMutability":"nonpayable"},{"type":"function","name":"setStatMultiplier","inputs":[{"name":"statType","type":"uint8","internalType":"enum ExpeditionCenter.StatType"},{"name":"multiplier","type":"uint256","internalType":"uint256"}],"outputs":[],"stateMutability":"nonpayable"},{"type":"function","name":"statMultipliers","inputs":[{"name":"","type":"uint8","internalType":"enum ExpeditionCenter.StatType"}],"outputs":[{"name":"","type":"uint256","internalType":"uint256"}],"stateMutability":"view"},{"type":"function","name":"transferOwnership","inputs":[{"name":"newOwner","type":"address","internalType":"address"}],"outputs":[],"stateMutability":"nonpayable"},{"type":"function","name":"upgradeToAndCall","inputs":[{"name":"newImplementation","type":"address","internalType":"address"},{"name":"data","type":"bytes","internalType":"bytes"}],"outputs":[],"stateMutability":"payable"},{"type":"function","name":"version","inputs":[],"outputs":[{"name":"","type":"string","internalType":"string"}],"stateMutability":"pure"},{"type":"function","name":"withdrawCookies","inputs":[],"outputs":[],"stateMutability":"nonpayable"},{"type":"event","name":"BonusRewardEarned","inputs":[{"name":"owner","type":"address","indexed":true,"internalType":"address"},{"name":"cookiesReward","type":"uint256","indexed":false,"internalType":"uint256"}],"anonymous":false},{"type":"event","name":"ExpeditionCompleted","inputs":[{"name":"tokenId","type":"uint256","indexed":true,"internalType":"uint256"},{"name":"owner","type":"address","indexed":true,"internalType":"address"},{"name":"statType","type":"uint8","indexed":false,"internalType":"enum ExpeditionCenter.StatType"},{"name":"gainAmount","type":"uint256","indexed":false,"internalType":"uint256"},{"name":"bonusReward","type":"bool","indexed":false,"internalType":"bool"}],"anonymous":false},{"type":"event","name":"ExpeditionStarted","inputs":[{"name":"tokenId","type":"uint256","indexed":true,"internalType":"uint256"},{"name":"owner","type":"address","indexed":true,"internalType":"address"},{"name":"duration","type":"uint256","indexed":false,"internalType":"uint256"},{"name":"statType","type":"uint8","indexed":false,"internalType":"enum ExpeditionCenter.StatType"},{"name":"cost","type":"uint256","indexed":false,"internalType":"uint256"}],"anonymous":false},{"type":"event","name":"Initialized","inputs":[{"name":"version","type":"uint64","indexed":false,"internalType":"uint64"}],"anonymous":false},{"type":"event","name":"OwnershipTransferred","inputs":[{"name":"previousOwner","type":"address","indexed":true,"internalType":"address"},{"name":"newOwner","type":"address","indexed":true,"internalType":"address"}],"anonymous":false},{"type":"event","name":"Upgraded","inputs":[{"name":"implementation","type":"address","indexed":true,"internalType":"address"}],"anonymous":false},{"type":"error","name":"AddressEmptyCode","inputs":[{"name":"target","type":"address","internalType":"address"}]},{"type":"error","name":"AlreadyOnExpedition","inputs":[]},{"type":"error","name":"ERC1967InvalidImplementation","inputs":[{"name":"implementation","type":"address","internalType":"address"}]},{"type":"error","name":"ERC1967NonPayable","inputs":[]},{"type":"error","name":"ExpeditionNotFinished","inputs":[]},{"type":"error","name":"FailedCall","inputs":[]},{"type":"error","name":"InsufficientCookies","inputs":[]},{"type":"error","name":"InvalidDuration","inputs":[]},{"type":"error","name":"InvalidInitialization","inputs":[]},{"type":"error","name":"NoActiveExpedition","inputs":[]},{"type":"error","name":"NotInitializing","inputs":[]},{"type":"error","name":"NotYourNadmon","inputs":[]},{"type":"error","name":"OwnableInvalidOwner","inputs":[{"name":"owner","type":"address","internalType":"address"}]},{"type":"error","name":"OwnableUnauthorizedAccount","inputs":[{"name":"account","type":"address","internalType":"address"}]},{"type":"error","name":"UUPSUnauthorizedCallContext","inputs":[]},{"type":"error","name":"UUPSUnsupportedProxiableUUID","inputs":[{"name":"slot","type":"bytes32","internalType":"bytes32"}]},{"type":"error","name":"ZeroAddress","inputs":[]}],"bytecode":{"object":"0x60a080604052346100c257306080525f5160206118c75f395f51905f525460ff8160401c166100b3576002600160401b03196001600160401b03821601610060575b60405161180090816100c7823960805181818161105401526111500152f35b6001600160401b0319166001600160401b039081175f5160206118c75f395f51905f525581527fc7f505b2f371ae2175ee4913f4499e1f2633a7b5936321eed1cdaeb6115181d290602090a15f80610041565b63f92ee8a960e01b5f5260045ffd5b5f80fdfe60806040526004361015610011575f80fd5b5f5f3560e01c80630c679733146113ed57806313fdedbb146113be5780631909d5e71461133c57806330453e19146113055780634f1ef286146110d45780635098bf69146110a857806352d1902d1461104257806354fd4d50146110035780636b55b15f14610f14578063715018a614610ead578063728870a914610e83578063767bcab514610e2d5780638c74840214610d3b5780638da5cb5b14610d0757806398980ba314610cdf5780639fe4d5a014610bda578063a3595d0614610847578063a672c92a14610818578063ad3cb1cc146107d4578063af61934f146107ab578063c0c53b8b1461051d578063cf67df46146101bf578063e57bf4a714610185578063f10fb5841461015c5763f2fde38b1461012d575f80fd5b3461015957602036600319011261015957610156610149611442565b6101516116ae565b61163d565b80f35b80fd5b50346101595780600319360112610159576004546040516001600160a01b039091168152602090f35b50346101595760403660031901126101595760043560048110156101bb576101ab6116ae565b6101b76024359161141e565b5580f35b5080fd5b503461015957606036600319011261015957600435602435906044356004811015610519576002546040516331a9108f60e11b81526004810184905290602090829060249082906001600160a01b03165afa90811561050e5785916104df575b50336001600160a01b03909116036104d057818452600160205260ff6040852054166104c15782845260056020526040842054156104b257828452600560205260408420549060018060a01b03600354166040516370a0823160e01b8152336004820152602081602481855afa80156104a7578491889161046e575b501061045f57602086916064604051809481936323b872dd60e01b83523360048401523060248401528860448401525af1801561045457610427575b50610e10840293808504610e101490151715610413576040516102f981611458565b8381526020810190338252604081014281526060820187815260808301906103218683611541565b60a084019287845260c085019560018752898c528b60205260408c2095518655600186019060018060a01b039051166001600160601b0360a01b82541617905551600285015551600384015560048301905160048110156103ff57916103d19594939160069360ff80198354169116179055516005820155019051151560ff80198354169116179055838652600160205260408620600160ff198254161790556040519485526020850190611435565b60408301527f99ccf424c6cc07d5ae1ed7d340cbff3f1ba7e8b54a21e18b17aa8fe751204d7060603393a380f35b634e487b7160e01b8a52602160045260248afd5b634e487b7160e01b85526011600452602485fd5b6104489060203d60201161044d575b6104408183611488565b810190611606565b6102d7565b503d610436565b6040513d88823e3d90fd5b633e66301760e21b8652600486fd5b9150506020813d60201161049f575b8161048a60209383611488565b8101031261049b578390515f61029b565b5f80fd5b3d915061047d565b6040513d89823e3d90fd5b637616640160e01b8452600484fd5b63f59474c360e01b8452600484fd5b63e32aa82960e01b8452600484fd5b610501915060203d602011610507575b6104f98183611488565b81019061161e565b5f61021f565b503d6104ef565b6040513d87823e3d90fd5b8380fd5b503461015957606036600319011261015957610537611442565b6024356001600160a01b038116908190036107a7576044356001600160a01b0381169190829003610519575f5160206117ab5f395f51905f52549260ff8460401c16159367ffffffffffffffff81168015908161079f575b6001149081610795575b15908161078c575b5061077d5767ffffffffffffffff1981166001175f5160206117ab5f395f51905f525584610751575b506105d36116e1565b6105db6116e1565b6105e43361163d565b6105ec6116e1565b6001600160a01b031680158015610749575b8015610741575b610732576001600160601b0360a01b60025416176002556001600160601b0360a01b60035416176003556001600160601b0360a01b6004541617600455600182526005602052600a6040832055600682526005602052603260408320556018825260056020526096604083205560488252600560205261015e604083205560a8825260056020526102bc6040832055818052600660205260c860408320556001825260066020526064604083205560028252600660205260646040832055600382526006602052603260408320556106da5780f35b68ff0000000000000000195f5160206117ab5f395f51905f5254165f5160206117ab5f395f51905f52557fc7f505b2f371ae2175ee4913f4499e1f2633a7b5936321eed1cdaeb6115181d2602060405160018152a180f35b63d92e233d60e01b8552600485fd5b508215610605565b5081156105fe565b68ffffffffffffffffff191668010000000000000001175f5160206117ab5f395f51905f52555f6105ca565b63f92ee8a960e01b8652600486fd5b9050155f6105a1565b303b159150610599565b86915061058f565b8280fd5b50346101595780600319360112610159576003546040516001600160a01b039091168152602090f35b50346101595780600319360112610159576108146040516107f6604082611488565b60058152640352e302e360dc1b6020820152604051918291826114c6565b0390f35b5034610159576040366003190112610159576108326116ae565b60043581526005602052602435604082205580f35b503461049b57602036600319011261049b57600435805f525f60205260405f209060ff60068301541615610bcb5760028201546108896003840154809261154d565b4210610bbc576002546040516331a9108f60e11b81526004810184905290602090829060249082906001600160a01b03165afa908115610a91575f91610b9d575b50336001600160a01b0390911603610b8e57610e1090049182800460011483151715610b7a5760246064610910600484019561090960ff88541661141e565b54906114f0565b049160018060a01b03600454166001820191602060018060a01b038454169260405195868092634aa0090960e11b82528660048301525afa938415610a91575f94610b59575b5083610ab0575b5050835f525f60205261099660405f2060065f918281558260018201558260028201558260038201558260048201558260058201550155565b835f52600160205260405f2060ff19815416905560018060a01b036002541660ff8654166004811015610a9c57813b1561049b575f9160648392604051948593849263245e249760e01b84528b600485015260248401528960448401525af18015610a9157610a54575b509160609160ff7fcc18d011c1a9f23d42f22bd3d3dd01ed7de08b31600f08cf0947e65394b0668a9460018060a01b0390541696541691610a446040518094611435565b602083015215156040820152a380f35b7fcc18d011c1a9f23d42f22bd3d3dd01ed7de08b31600f08cf0947e65394b0668a9391965091610a865f606094611488565b5f9691935091610a00565b6040513d5f823e3d90fd5b634e487b7160e01b5f52602160045260245ffd5b6005015460035460405163a9059cbb60e01b81526001600160a01b03938416600482015260019290921c6024830181905292602091839160449183915f91165af18015610a9157610b3c575b5081546040519182526001600160a01b0316907f598535b420588d7357243139197d2df6c70249ff17b8b8bf1e9148778f3f2dff90602090a25f8061095d565b610b549060203d60201161044d576104408183611488565b610afc565b610b7391945060203d60201161044d576104408183611488565b925f610956565b634e487b7160e01b5f52601160045260245ffd5b63e32aa82960e01b5f5260045ffd5b610bb6915060203d602011610507576104f98183611488565b5f6108ca565b631ea0565f60e21b5f5260045ffd5b6354fd7b3b60e01b5f5260045ffd5b3461049b57602036600319011261049b575f60c0604051610bfa81611458565b8281528260208201528260408201528260608201528260808201528260a082015201526004355f525f60205260e060405f2060405190610c3982611458565b8054825260018060a01b036001820154169060208301918252610ccf60028201546040850190815260038301546060860190815260ff60048501541691610c84608088019384611541565b60ff600660058701549660a08a019788520154169560c0880196151587526040519751885260018060a01b039051166020880152516040870152516060860152516080850190611435565b5160a083015251151560c0820152f35b3461049b575f36600319011261049b576002546040516001600160a01b039091168152602090f35b3461049b575f36600319011261049b575f51602061176b5f395f51905f52546040516001600160a01b039091168152602090f35b3461049b575f36600319011261049b57610d536116ae565b6003546040516370a0823160e01b81523060048201526001600160a01b0390911690602081602481855afa908115610a91575f91610df9575b505f51602061176b5f395f51905f525460405163a9059cbb60e01b81526001600160a01b0390911660048201526024810191909152906020908290815f81604481015b03925af18015610a9157610ddf57005b610df79060203d60201161044d576104408183611488565b005b90506020813d602011610e25575b81610e1460209383611488565b8101031261049b5751610dcf610d8c565b3d9150610e07565b3461049b57602036600319011261049b57610e46611442565b610e4e6116ae565b6001600160a01b03168015610e74576001600160601b0360a01b60045416176004555f80f35b63d92e233d60e01b5f5260045ffd5b3461049b57602036600319011261049b576004355f526005602052602060405f2054604051908152f35b3461049b575f36600319011261049b57610ec56116ae565b5f51602061176b5f395f51905f5280546001600160a01b031981169091555f906001600160a01b03167f8be0079c531659141344cd1fd0a4f28419497f9722a3daafe3b4186f6b6457e08280a3005b3461049b57602036600319011261049b57600435610f306116ae565b805f525f60205260405f2060ff600682015416610f4957005b600354600182015460059092015460405163a9059cbb60e01b81526001600160a01b039384166004820152602481019190915291602091839160449183915f91165af18015610a9157610fe6575b50805f525f602052610fcf60405f2060065f918281558260018201558260028201558260038201558260048201558260058201550155565b5f908152600160205260409020805460ff19169055005b610ffe9060203d60201161044d576104408183611488565b610f97565b3461049b575f36600319011261049b57610814604051611024604082611488565b60058152640312e302e360dc1b6020820152604051918291826114c6565b3461049b575f36600319011261049b577f00000000000000000000000000000000000000000000000000000000000000006001600160a01b031630036110995760206040515f51602061178b5f395f51905f528152f35b63703e46dd60e11b5f5260045ffd5b3461049b57602036600319011261049b5760406110c660043561155a565b825191151582526020820152f35b604036600319011261049b576110e8611442565b6024359067ffffffffffffffff821161049b573660238301121561049b57816004013590611115826114aa565b916111236040519384611488565b8083526020830193366024838301011161049b57815f926024602093018737840101526001600160a01b037f0000000000000000000000000000000000000000000000000000000000000000163081149081156112e3575b50611099576111886116ae565b6040516352d1902d60e01b81526001600160a01b0382169390602081600481885afa5f91816112af575b506111ca5784634c9c8ce360e01b5f5260045260245ffd5b805f51602061178b5f395f51905f5286920361129d5750823b1561128b575f51602061178b5f395f51905f5280546001600160a01b031916821790557fbc7cd75a20ee27fd9adebab32041f755214dbc6bffa90cc0225b39da2e5c2d3b5f80a2825115611272575f8091610df7945190845af43d1561126a573d9161124e836114aa565b9261125c6040519485611488565b83523d5f602085013e61170c565b60609161170c565b5050503461127c57005b63b398979f60e01b5f5260045ffd5b634c9c8ce360e01b5f5260045260245ffd5b632a87526960e21b5f5260045260245ffd5b9091506020813d6020116112db575b816112cb60209383611488565b8101031261049b575190866111b2565b3d91506112be565b5f51602061178b5f395f51905f52546001600160a01b0316141590508461117b565b3461049b57604036600319011261049b57602435600481101561049b57611330604091600435611503565b82519182526020820152f35b3461049b57602036600319011261049b576004355f525f60205260e060405f2080549060018060a01b03600182015416906113b06002820154600383015460ff6004850154169160ff6006600587015496015416956040519788526020880152604087015260608601526080850190611435565b60a0830152151560c0820152f35b3461049b57602036600319011261049b576004355f526001602052602060ff60405f2054166040519015158152f35b3461049b57602036600319011261049b57600435600481101561049b5761141560209161141e565b54604051908152f35b6004811015610a9c575f52600660205260405f2090565b906004821015610a9c5752565b600435906001600160a01b038216820361049b57565b60e0810190811067ffffffffffffffff82111761147457604052565b634e487b7160e01b5f52604160045260245ffd5b90601f8019910116810190811067ffffffffffffffff82111761147457604052565b67ffffffffffffffff811161147457601f01601f191660200190565b602060409281835280519182918282860152018484015e5f828201840152601f01601f1916010190565b81810292918115918404141715610b7a57565b805f52600560205260405f20549182156115385781800460011482151715610b7a576064916109096115349261141e565b0491565b5050505f905f90565b6004821015610a9c5752565b91908201809211610b7a57565b5f525f60205260405f206040519061157182611458565b8054825260018060a01b0360018201541660208301526002810154916040810192835260ff6006600384015493606084019485526115b88360048301541660808601611541565b600581015460a0850152015416159060c082159101526115fe576115df915190519061154d565b4281116115ee57506001905f90565b90428203918211610b7a575f9190565b50505f905f90565b9081602091031261049b5751801515810361049b5790565b9081602091031261049b57516001600160a01b038116810361049b5790565b6001600160a01b0316801561169b575f51602061176b5f395f51905f5280546001600160a01b0319811683179091556001600160a01b03167f8be0079c531659141344cd1fd0a4f28419497f9722a3daafe3b4186f6b6457e05f80a3565b631e4fbdf760e01b5f525f60045260245ffd5b5f51602061176b5f395f51905f52546001600160a01b031633036116ce57565b63118cdaa760e01b5f523360045260245ffd5b60ff5f5160206117ab5f395f51905f525460401c16156116fd57565b631afcd79f60e31b5f5260045ffd5b90611730575080511561172157805190602001fd5b63d6bda27560e01b5f5260045ffd5b81511580611761575b611741575090565b639996b31560e01b5f9081526001600160a01b0391909116600452602490fd5b50803b1561173956fe9016d09d72d40fdae2fd8ceac6b6234c7706214fd39c1cd1e609a0528c199300360894a13ba1a3210667c828492db98dca3e2076cc3735a920a3ca505d382bbcf0c57e16840df040f15088dc2f81fe391c3923bec73e23a9662efc9c229c6a00a2646970667358221220c86e8687e5bd152bd62c2ddf202c5a170eef443b1972dc25e492e21524d1ec9b64736f6c634300081c0033f0c57e16840df040f15088dc2f81fe391c3923bec73e23a9662efc9c229c6a00","linkReferences":{}},"methodIdentifiers":{"UPGRADE_INTERFACE_VERSION()":"ad3cb1cc","activeExpeditions(uint256)":"1909d5e7","calculateExpeditionGain(uint256,uint8)":"30453e19","claimExpedition(uint256)":"a3595d06","cookiesToken()":"af61934f","durationCosts(uint256)":"728870a9","emergencyCancelExpedition(uint256)":"6b55b15f","getExpeditionDetails(uint256)":"9fe4d5a0","getExpeditionStatus(uint256)":"5098bf69","initialize(address,address,address)":"c0c53b8b","isOnExpedition(uint256)":"13fdedbb","nadmonNFT()":"98980ba3","owner()":"8da5cb5b","proxiableUUID()":"52d1902d","randomizer()":"f10fb584","renounceOwnership()":"715018a6","sendToExpedition(uint256,uint256,uint8)":"cf67df46","setDurationCost(uint256,uint256)":"a672c92a","setRandomizer(address)":"767bcab5","setStatMultiplier(uint8,uint256)":"e57bf4a7","statMultipliers(uint8)":"0c679733","transferOwnership(address)":"f2fde38b","upgradeToAndCall(address,bytes)":"4f1ef286","version()":"54fd4d50","withdrawCookies()":"8c748402"},"id":54}