{"abi":[{"type":"constructor","inputs":[],"stateMutability":"nonpayable"},{"type":"function","name":"UPGRADE_INTERFACE_VERSION","inputs":[],"outputs":[{"name":"","type":"string","internalType":"string"}],"stateMutability":"view"},{"type":"function","name":"applyExpeditionGains","inputs":[{"name":"tokenId","type":"uint256","internalType":"uint256"},{"name":"statType","type":"uint256","internalType":"uint256"},{"name":"amount","type":"uint256","internalType":"uint256"}],"outputs":[],"stateMutability":"nonpayable"},{"type":"function","name":"approve","inputs":[{"name":"to","type":"address","internalType":"address"},{"name":"tokenId","type":"uint256","internalType":"uint256"}],"outputs":[],"stateMutability":"nonpayable"},{"type":"function","name":"balanceOf","inputs":[{"name":"owner","type":"address","internalType":"address"}],"outputs":[{"name":"","type":"uint256","internalType":"uint256"}],"stateMutability":"view"},{"type":"function","name":"baseImageURI","inputs":[],"outputs":[{"name":"","type":"string","internalType":"string"}],"stateMutability":"view"},{"type":"function","name":"buyPackWithCookies","inputs":[],"outputs":[],"stateMutability":"nonpayable"},{"type":"function","name":"buyPackWithMON","inputs":[],"outputs":[],"stateMutability":"payable"},{"type":"function","name":"buyStatBoost","inputs":[{"name":"tokenId","type":"uint256","internalType":"uint256"},{"name":"statType","type":"string","internalType":"string"}],"outputs":[],"stateMutability":"nonpayable"},{"type":"function","name":"cookiesToken","inputs":[],"outputs":[{"name":"","type":"address","internalType":"contract IERC20"}],"stateMutability":"view"},{"type":"function","name":"emergencyPause","inputs":[],"outputs":[],"stateMutability":"nonpayable"},{"type":"function","name":"emergencyPaused","inputs":[],"outputs":[{"name":"","type":"bool","internalType":"bool"}],"stateMutability":"view"},{"type":"function","name":"emergencyUnpause","inputs":[],"outputs":[],"stateMutability":"nonpayable"},{"type":"function","name":"evolve","inputs":[{"name":"tokenIds","type":"uint256[]","internalType":"uint256[]"}],"outputs":[],"stateMutability":"nonpayable"},{"type":"function","name":"expeditionCenter","inputs":[],"outputs":[{"name":"","type":"address","internalType":"address"}],"stateMutability":"view"},{"type":"function","name":"getApproved","inputs":[{"name":"tokenId","type":"uint256","internalType":"uint256"}],"outputs":[{"name":"","type":"address","internalType":"address"}],"stateMutability":"view"},{"type":"function","name":"initialize","inputs":[{"name":"_randomizer","type":"address","internalType":"address"},{"name":"_cookiesToken","type":"address","internalType":"address"}],"outputs":[],"stateMutability":"nonpayable"},{"type":"function","name":"isApprovedForAll","inputs":[{"name":"owner","type":"address","internalType":"address"},{"name":"operator","type":"address","internalType":"address"}],"outputs":[{"name":"","type":"bool","internalType":"bool"}],"stateMutability":"view"},{"type":"function","name":"maxSupply","inputs":[],"outputs":[{"name":"","type":"uint256","internalType":"uint256"}],"stateMutability":"view"},{"type":"function","name":"nadmons","inputs":[{"name":"","type":"uint256","internalType":"uint256"}],"outputs":[{"name":"nadmonType","type":"string","internalType":"string"},{"name":"element","type":"string","internalType":"string"},{"name":"rarity","type":"string","internalType":"string"},{"name":"hp","type":"uint256","internalType":"uint256"},{"name":"attack","type":"uint256","internalType":"uint256"},{"name":"defense","type":"uint256","internalType":"uint256"},{"name":"crit","type":"uint256","internalType":"uint256"},{"name":"fusion","type":"uint256","internalType":"uint256"},{"name":"evo","type":"uint256","internalType":"uint256"}],"stateMutability":"view"},{"type":"function","name":"name","inputs":[],"outputs":[{"name":"","type":"string","internalType":"string"}],"stateMutability":"view"},{"type":"function","name":"owner","inputs":[],"outputs":[{"name":"","type":"address","internalType":"address"}],"stateMutability":"view"},{"type":"function","name":"ownerOf","inputs":[{"name":"tokenId","type":"uint256","internalType":"uint256"}],"outputs":[{"name":"","type":"address","internalType":"address"}],"stateMutability":"view"},{"type":"function","name":"packPricing","inputs":[],"outputs":[{"name":"monPrice","type":"uint256","internalType":"uint256"},{"name":"cookiesPrice","type":"uint256","internalType":"uint256"},{"name":"dailyMonLimit","type":"uint256","internalType":"uint256"},{"name":"dailyMonSold","type":"uint256","internalType":"uint256"},{"name":"lastResetDay","type":"uint256","internalType":"uint256"}],"stateMutability":"view"},{"type":"function","name":"proxiableUUID","inputs":[],"outputs":[{"name":"","type":"bytes32","internalType":"bytes32"}],"stateMutability":"view"},{"type":"function","name":"randomizer","inputs":[],"outputs":[{"name":"","type":"address","internalType":"contract INadmonRandomizer"}],"stateMutability":"view"},{"type":"function","name":"renounceOwnership","inputs":[],"outputs":[],"stateMutability":"nonpayable"},{"type":"function","name":"resupply","inputs":[{"name":"newMaxSupply","type":"uint256","internalType":"uint256"}],"outputs":[],"stateMutability":"nonpayable"},{"type":"function","name":"safeTransferFrom","inputs":[{"name":"from","type":"address","internalType":"address"},{"name":"to","type":"address","internalType":"address"},{"name":"tokenId","type":"uint256","internalType":"uint256"}],"outputs":[],"stateMutability":"nonpayable"},{"type":"function","name":"safeTransferFrom","inputs":[{"name":"","type":"address","internalType":"address"},{"name":"","type":"address","internalType":"address"},{"name":"","type":"uint256","internalType":"uint256"},{"name":"","type":"bytes","internalType":"bytes"}],"outputs":[],"stateMutability":"pure"},{"type":"function","name":"setApprovalForAll","inputs":[{"name":"operator","type":"address","internalType":"address"},{"name":"approved","type":"bool","internalType":"bool"}],"outputs":[],"stateMutability":"nonpayable"},{"type":"function","name":"setBaseImageURI","inputs":[{"name":"newBaseURI","type":"string","internalType":"string"}],"outputs":[],"stateMutability":"nonpayable"},{"type":"function","name":"setExpeditionCenter","inputs":[{"name":"newExpeditionCenter","type":"address","internalType":"address"}],"outputs":[],"stateMutability":"nonpayable"},{"type":"function","name":"setPackPricing","inputs":[{"name":"newMonPrice","type":"uint256","internalType":"uint256"},{"name":"newCookiesPrice","type":"uint256","internalType":"uint256"},{"name":"newDailyLimit","type":"uint256","internalType":"uint256"}],"outputs":[],"stateMutability":"nonpayable"},{"type":"function","name":"setRandomizer","inputs":[{"name":"newRandomizer","type":"address","internalType":"address"}],"outputs":[],"stateMutability":"nonpayable"},{"type":"function","name":"supportsInterface","inputs":[{"name":"interfaceId","type":"bytes4","internalType":"bytes4"}],"outputs":[{"name":"","type":"bool","internalType":"bool"}],"stateMutability":"view"},{"type":"function","name":"symbol","inputs":[],"outputs":[{"name":"","type":"string","internalType":"string"}],"stateMutability":"view"},{"type":"function","name":"tokenURI","inputs":[{"name":"tokenId","type":"uint256","internalType":"uint256"}],"outputs":[{"name":"","type":"string","internalType":"string"}],"stateMutability":"view"},{"type":"function","name":"totalSupply","inputs":[],"outputs":[{"name":"","type":"uint256","internalType":"uint256"}],"stateMutability":"view"},{"type":"function","name":"transferFrom","inputs":[{"name":"","type":"address","internalType":"address"},{"name":"","type":"address","internalType":"address"},{"name":"","type":"uint256","internalType":"uint256"}],"outputs":[],"stateMutability":"pure"},{"type":"function","name":"transferOwnership","inputs":[{"name":"newOwner","type":"address","internalType":"address"}],"outputs":[],"stateMutability":"nonpayable"},{"type":"function","name":"typeToImageHash","inputs":[{"name":"","type":"string","internalType":"string"}],"outputs":[{"name":"","type":"string","internalType":"string"}],"stateMutability":"view"},{"type":"function","name":"upgradeToAndCall","inputs":[{"name":"newImplementation","type":"address","internalType":"address"},{"name":"data","type":"bytes","internalType":"bytes"}],"outputs":[],"stateMutability":"payable"},{"type":"function","name":"version","inputs":[],"outputs":[{"name":"","type":"string","internalType":"string"}],"stateMutability":"pure"},{"type":"function","name":"withdraw","inputs":[],"outputs":[],"stateMutability":"nonpayable"},{"type":"function","name":"withdrawCookies","inputs":[],"outputs":[],"stateMutability":"nonpayable"},{"type":"event","name":"Approval","inputs":[{"name":"owner","type":"address","indexed":true,"internalType":"address"},{"name":"approved","type":"address","indexed":true,"internalType":"address"},{"name":"tokenId","type":"uint256","indexed":true,"internalType":"uint256"}],"anonymous":false},{"type":"event","name":"ApprovalForAll","inputs":[{"name":"owner","type":"address","indexed":true,"internalType":"address"},{"name":"operator","type":"address","indexed":true,"internalType":"address"},{"name":"approved","type":"bool","indexed":false,"internalType":"bool"}],"anonymous":false},{"type":"event","name":"EmergencyPauseToggled","inputs":[{"name":"paused","type":"bool","indexed":false,"internalType":"bool"}],"anonymous":false},{"type":"event","name":"Initialized","inputs":[{"name":"version","type":"uint64","indexed":false,"internalType":"uint64"}],"anonymous":false},{"type":"event","name":"NadmonEvolved","inputs":[{"name":"tokenId","type":"uint256","indexed":true,"internalType":"uint256"},{"name":"newEvo","type":"uint256","indexed":false,"internalType":"uint256"},{"name":"fusionPoints","type":"uint256","indexed":false,"internalType":"uint256"}],"anonymous":false},{"type":"event","name":"OwnershipTransferred","inputs":[{"name":"previousOwner","type":"address","indexed":true,"internalType":"address"},{"name":"newOwner","type":"address","indexed":true,"internalType":"address"}],"anonymous":false},{"type":"event","name":"PackMinted","inputs":[{"name":"player","type":"address","indexed":true,"internalType":"address"},{"name":"packId","type":"uint256","indexed":false,"internalType":"uint256"},{"name":"tokenIds","type":"uint256[]","indexed":false,"internalType":"uint256[]"},{"name":"paymentType","type":"string","indexed":false,"internalType":"string"}],"anonymous":false},{"type":"event","name":"StatBoostPurchased","inputs":[{"name":"player","type":"address","indexed":true,"internalType":"address"},{"name":"tokenId","type":"uint256","indexed":true,"internalType":"uint256"},{"name":"statType","type":"string","indexed":false,"internalType":"string"},{"name":"cost","type":"uint256","indexed":false,"internalType":"uint256"}],"anonymous":false},{"type":"event","name":"StatBoosted","inputs":[{"name":"tokenId","type":"uint256","indexed":true,"internalType":"uint256"},{"name":"statType","type":"uint256","indexed":false,"internalType":"uint256"},{"name":"amount","type":"uint256","indexed":false,"internalType":"uint256"}],"anonymous":false},{"type":"event","name":"Transfer","inputs":[{"name":"from","type":"address","indexed":true,"internalType":"address"},{"name":"to","type":"address","indexed":true,"internalType":"address"},{"name":"tokenId","type":"uint256","indexed":true,"internalType":"uint256"}],"anonymous":false},{"type":"event","name":"Upgraded","inputs":[{"name":"implementation","type":"address","indexed":true,"internalType":"address"}],"anonymous":false},{"type":"error","name":"AddressEmptyCode","inputs":[{"name":"target","type":"address","internalType":"address"}]},{"type":"error","name":"CanOnlyIncrease","inputs":[]},{"type":"error","name":"DailyLimitReached","inputs":[]},{"type":"error","name":"DifferentElements","inputs":[]},{"type":"error","name":"DifferentTypes","inputs":[]},{"type":"error","name":"ERC1967InvalidImplementation","inputs":[{"name":"implementation","type":"address","internalType":"address"}]},{"type":"error","name":"ERC1967NonPayable","inputs":[]},{"type":"error","name":"ERC721IncorrectOwner","inputs":[{"name":"sender","type":"address","internalType":"address"},{"name":"tokenId","type":"uint256","internalType":"uint256"},{"name":"owner","type":"address","internalType":"address"}]},{"type":"error","name":"ERC721InsufficientApproval","inputs":[{"name":"operator","type":"address","internalType":"address"},{"name":"tokenId","type":"uint256","internalType":"uint256"}]},{"type":"error","name":"ERC721InvalidApprover","inputs":[{"name":"approver","type":"address","internalType":"address"}]},{"type":"error","name":"ERC721InvalidOperator","inputs":[{"name":"operator","type":"address","internalType":"address"}]},{"type":"error","name":"ERC721InvalidOwner","inputs":[{"name":"owner","type":"address","internalType":"address"}]},{"type":"error","name":"ERC721InvalidReceiver","inputs":[{"name":"receiver","type":"address","internalType":"address"}]},{"type":"error","name":"ERC721InvalidSender","inputs":[{"name":"sender","type":"address","internalType":"address"}]},{"type":"error","name":"ERC721NonexistentToken","inputs":[{"name":"tokenId","type":"uint256","internalType":"uint256"}]},{"type":"error","name":"FailedCall","inputs":[]},{"type":"error","name":"InsufficientCookies","inputs":[]},{"type":"error","name":"InsufficientPayment","inputs":[]},{"type":"error","name":"InvalidInitialization","inputs":[]},{"type":"error","name":"NotEnoughCards","inputs":[]},{"type":"error","name":"NotEnoughFusion","inputs":[]},{"type":"error","name":"NotInitializing","inputs":[]},{"type":"error","name":"NotYourCard","inputs":[]},{"type":"error","name":"OwnableInvalidOwner","inputs":[{"name":"owner","type":"address","internalType":"address"}]},{"type":"error","name":"OwnableUnauthorizedAccount","inputs":[{"name":"account","type":"address","internalType":"address"}]},{"type":"error","name":"SoldOut","inputs":[]},{"type":"error","name":"SoulboundTransfer","inputs":[]},{"type":"error","name":"TokenDoesNotExist","inputs":[]},{"type":"error","name":"UUPSUnauthorizedCallContext","inputs":[]},{"type":"error","name":"UUPSUnsupportedProxiableUUID","inputs":[{"name":"slot","type":"bytes32","internalType":"bytes32"}]},{"type":"error","name":"ZeroAddress","inputs":[]}],"bytecode":{"object":"0x60a080604052346100cc573060805260ff19600d5416600d555f516020613cec5f395f51905f525460ff8160401c166100bd576002600160401b03196001600160401b0382160161006a575b604051613c1b90816100d18239608051818181611ad30152611bb60152f35b6001600160401b0319166001600160401b039081175f516020613cec5f395f51905f525581527fc7f505b2f371ae2175ee4913f4499e1f2633a7b5936321eed1cdaeb6115181d290602090a15f8061004b565b63f92ee8a960e01b5f5260045ffd5b5f80fdfe6080806040526004361015610012575f80fd5b5f3560e01c90816301ffc9a714612c1d5750806306fdde0314612b60578063081812fc14612b18578063095ea7b314612a2c57806310b77c261461278757806318160ddd1461276a57806323b872dd1461274a578063245e24971461262957806327c830a9146126075780633ccfd60b146125b957806340e85c2a1461256357806342842e0e14612533578063485cc95514611dbb5780634a4e3bd514611d6d5780634f1ef28614611b7957806351858e2714611b2757806352d1902d14611ac157806353326d6714611a7a57806354fd4d5014611a335780636352211e14611a035780636dad5de7146119e15780637088183b146119a757806370a0823114611958578063715018a6146118f157806374f82e301461185f57806376775b0f14611837578063767bcab5146117e15780638647ca76146116845780638c748402146115a25780638da5cb5b1461156e57806395d89b4114611478578063a22cb465146113e0578063a73a18f51461131e578063ad3cb1cc146112d7578063af61934f146112af578063b88d4fde1461125d578063c87b56dd14610a50578063ceb9318214610536578063d12a91b614610481578063d5abeb0114610464578063d94415c0146102ed578063de847568146102ae578063e985e9c514610262578063f10fb5841461023a5763f2fde38b1461020b575f80fd5b3461023657602036600319011261023657610234610227612cac565b61022f613128565b613061565b005b5f80fd5b34610236575f366003190112610236576009546040516001600160a01b039091168152602090f35b346102365760403660031901126102365761027b612cac565b61028c610286612cc2565b91612f71565b9060018060a01b03165f52602052602060ff60405f2054166040519015158152f35b34610236575f3660031901126102365760a060045460055460065460075490600854926040519485526020850152604084015260608301526080820152f35b34610236575f3660031901126102365761030c60ff600d541615612fa9565b60025460058101809111610450576003541061044157600a546040516370a0823160e01b81523360048201526001600160a01b0390911690602081602481855afa9081156103f5575f9161040f575b50600554809110610400575f91606460209260405194859384926323b872dd60e01b845233600485015230602485015260448401525af180156103f5576103c8575b6102346040516103ae604082612cf4565b6007815266434f4f4b49455360c81b6020820152336133ba565b6103e99060203d6020116103ee575b6103e18183612cf4565b810190612ea0565b61039d565b503d6103d7565b6040513d5f823e3d90fd5b633e66301760e21b5f5260045ffd5b90506020813d602011610439575b8161042a60209383612cf4565b8101031261023657518261035b565b3d915061041d565b6352df9fe560e01b5f5260045ffd5b634e487b7160e01b5f52601160045260245ffd5b34610236575f366003190112610236576020600354604051908152f35b5f3660031901126102365761049b60ff600d541615612fa9565b6201518042046008548111610529575b5060025460058101809111610450576003541061044157600454340361051a5760075460065481101561050b576104e190613053565b6007556102346040516104f5604082612cf4565b600381526226a7a760e91b6020820152336133ba565b63f402e5b160e01b5f5260045ffd5b63cd1c886760e01b5f5260045ffd5b5f600755600855806104ab565b34610236576020366003190112610236576004356001600160401b0381116102365736602382011215610236578060040135906001600160401b038211610236576024810190602436918460051b0101116102365761059a60ff600d541615612fa9565b60028210610a41578115610a2d57803591825f525f6020526105c1600160405f2001612e00565b91835f525f6020526105d560405f20612e00565b5f935f91602082019160208201905b868510610819575050505050600a831061080a5760015b8281106106c957847f70de6089f4d441c213d422bb24784efb5e63e3c211041c71f69141c04e7bf084604086835f525f602052815f2081600782015560088101906001825414806106c1575b61065c575b50549082519182526020820152a2005b600282556106b9600661067961067460028501612e00565b6132d5565b9260038101610689858254612eb8565b90556004810161069a858254612eb8565b9055600581016106ab858254612eb8565b9055019160011c8254612eb8565b90558561064c565b506001610647565b6106d4818484612ff5565b356106de816130ef565b6001600160a01b0381168015919083905f9084156107ce575b8282527f80bb2b638cc20bc4d0a60d66940f3ab4a00c1d7b313497ca82fb0b4ab00793026020526040822080546001600160a01b03191690557fddf252ad1be2c89b69c2b068fc378daa952ba7f163c4a11628f55a4df523b3ef8280a4506107bc5750806107686001928585612ff5565b355f525f6020525f60086040822061077f81613005565b61078a858201613005565b61079660028201613005565b8260038201558260048201558260058201558260068201558260078201550155016105fb565b637e27328960e01b5f5260045260245ffd5b5f8381525f516020613b665f395f51905f526020526040902080546001600160a01b03191690556107fe84612f39565b821981540190556106f7565b631fd17bf960e31b5f5260045ffd5b90919293963360018060a01b0361083a6108348b8b8b612ff5565b356130d2565b1603610a1e5761084b888888612ff5565b355f525f602052600160405f20016040515f918181549361086b85612dc8565b9283835260208301956001811690815f146109ff57506001146109bd575b5061089692500382612cf4565b51902082518620036109ae576108ad888888612ff5565b355f525f60205260405f206040515f91818154936108ca85612dc8565b9283835260208301956001811690815f1461098f575060011461094d575b506108f592500382612cf4565b519020845184200361093e5761090c888888612ff5565b355f525f602052600760405f20015490600182018092116104505760019161093391612eb8565b9701939291906105e4565b6325d46bd360e11b5f5260045ffd5b9150505f528160205f20915f925b81841061097357505060206108f5928201018e6108e8565b602091925080600191548386880101520192019190839161095b565b60ff19168752506108f593151560051b830160200191508f90506108e8565b63f2fa023960e01b5f5260045ffd5b9150505f528160205f20915f925b8184106109e35750506020610896928201018e610889565b60209192508060019154838688010152019201919083916109cb565b60ff191687525061089693151560051b830160200191508f9050610889565b637ddf3f6d60e01b5f5260045ffd5b634e487b7160e01b5f52603260045260245ffd5b637f85ce1360e11b5f5260045ffd5b34610236576020366003190112610236576001600160a01b03610a746004356130ef565b161561124e576004355f525f60205260405f206001600860405192610a9884612cd8565b610aa181612e00565b8452610aae838201612e00565b6020850152610abf60028201612e00565b60408501526003810154606085015260048101546080850152600581015460a0850152600681015460c0850152600781015460e0850152015480610100840152145f14611211578051905b80516101008201516001036111e957604051610b27604082612cf4565b60048152636261736560e01b6020820152915b815193610b5f610b4986612d15565b95610b576040519788612cf4565b808752612d15565b601f19013660208701375f5b8351811015610c11576041610b80828661397e565b5160f81c101580610bf9575b15610bcf576020610b9d828661397e565b5160f81c019060ff82116104505760019160f81b6001600160f81b0319165f1a610bc7828961397e565b535b01610b6b565b6001906001600160f81b0319610be5828761397e565b51165f1a610bf3828961397e565b53610bc9565b50605a610c06828661397e565b5160f81c1115610b8c565b5083856040519182915f600c54610c2781612dc8565b90600181169081156111ce5750600114611187575b5081516020819301825e01602d60f81b815281516020819301600183015e0160018101632e706e6760e01b905203600101601b1981018252600401610c819082612cf4565b610c8c60043561318d565b92604081015191602082015190610100830151610ca89061318d565b90835160208501516040860151906060870151610cc49061318d565b926080880151610cd39061318d565b9460a0890151610ce29061318d565b9660c08a0151610cf19061318d565b9860e08b0151610d009061318d565b9a6101000151610d0f9061318d565b9b6040519e8f9e8f683d913730b6b2911d1160b91b602082015281516020819301602983015e016029810161202360f01b905281516020819301602b83015e0160290161088b60f21b6002820152700113232b9b1b934b83a34b7b7111d11209607d1b600482015281516020819301601583015e0160020160138101600160fd1b905281516020819301601483015e01601301600181017f20656c656d656e74204d6f6e6164204d6f6e73746572202d2045766f20000000905281516020819301601e83015e0160010161088b60f21b601d820152681134b6b0b3b2911d1160b91b601f82015281516020819301602883015e01601d0161088b60f21b600b8201526d2261747472696275746573223a5b60901b600d820152601b81017f7b2274726169745f74797065223a2254797065222c2276616c7565223a220000905281516020819301603983015e01600b0162089f4b60ea1b602e820152603181017f7b2274726169745f74797065223a22456c656d656e74222c2276616c7565223a9052601160f91b605182015281516020819301605283015e01602e0162089f4b60ea1b6024820152602781017f7b2274726169745f74797065223a22526172697479222c2276616c7565223a22905281516020819301604783015e0160240162089f4b60ea1b6023820152602681017f7b2274726169745f74797065223a224850222c2276616c7565223a0000000000905281516020819301604183015e01602301601e8101611f4b60f21b9052602081017f7b2274726169745f74797065223a2241747461636b222c2276616c7565223a00905281516020819301603f83015e01601e0160218101611f4b60f21b9052602381017f7b2274726169745f74797065223a22446566656e7365222c2276616c7565223a905281516020819301604383015e0160210160228101611f4b60f21b9052602481017f7b2274726169745f74797065223a2243726974222c2276616c7565223a000000905281516020819301604183015e01602201601f8101611f4b60f21b9052602181017f7b2274726169745f74797065223a22467573696f6e222c2276616c7565223a00905281516020819301604083015e01601f0160218101611f4b60f21b9052602381017f7b2274726169745f74797065223a2245766f222c2276616c7565223a00000000905281516020819301603f83015e01602101601e8101607d60f81b9052601f8101615d7d60f01b905203601e01601c19810182526003016110b09082612cf4565b6040516110be606082612cf4565b60408082527f4142434445464748494a4b4c4d4e4f505152535455565758595a61626364656660208301527f6768696a6b6c6d6e6f707172737475767778797a303132333435363738392b2f908201526111179161398f565b6040518091602082017f646174613a6170706c69636174696f6e2f6a736f6e3b6261736536342c000000905280516020819201603d84015e8101603d81015f905203603d01601f198101825261116d9082612cf4565b6040518091602082526020820161118391612c88565b0390f35b9050600c5f525f516020613ae65f395f51905f525f905b8282106111b2575050830160200187610c3c565b805460208389018101919091528796509091019060010161119e565b90506020925060ff1916828601528015150284010187610c3c565b6040516111f7604082612cf4565b6007815266195d9bdb1d995960ca1b602082015291610b3a565b602061124860038284516040519481869251918291018484015e81016220494960e81b838201520301601c19810184520182612cf4565b90610b0a565b63677510db60e11b5f5260045ffd5b3461023657608036600319011261023657611276612cac565b5061127f612cc2565b506064356001600160401b0381116102365761129f903690600401612d30565b50631e953aff60e21b5f5260045ffd5b34610236575f36600319011261023657600a546040516001600160a01b039091168152602090f35b34610236575f366003190112610236576111836040516112f8604082612cf4565b60058152640352e302e360dc1b6020820152604051918291602083526020830190612c88565b34610236576020366003190112610236576004355f525f6020526113a060405f2061134881612e00565b9061135560018201612e00565b61136160028301612e00565b9160038101549260048201546005830154906113bc6006850154936113ae60086007880154970154976040519b8c9b6101208d526101208d0190612c88565b908b820360208d0152612c88565b9089820360408b0152612c88565b956060880152608087015260a086015260c085015260e08401526101008301520390f35b34610236576040366003190112610236576113f9612cac565b60243590811515809203610236576001600160a01b03169081156114655761142033612f71565b825f5260205260405f2060ff1981541660ff83161790556040519081527f17307eab39ab6107e8899845ad3d59bd9653f200f220920489ca2b5937696c3160203392a3005b50630b61174360e31b5f5260045260245ffd5b34610236575f366003190112610236576040515f5f516020613bc65f395f51905f52546114a481612dc8565b808452906001811690811561154a57506001146114e0575b611183836114cc81850382612cf4565b604051918291602083526020830190612c88565b5f516020613bc65f395f51905f525f9081527ff4bad0a69248f59680a4f2b3000328cec71a413447c96781cfe5996daa8c456e939250905b808210611530575090915081016020016114cc6114bc565b919260018160209254838588010152019101909291611518565b60ff191660208086019190915291151560051b840190910191506114cc90506114bc565b34610236575f366003190112610236575f516020613b265f395f51905f52546040516001600160a01b039091168152602090f35b34610236575f366003190112610236576115ba613128565b600a545f516020613b265f395f51905f52546040516370a0823160e01b81523060048201526001600160a01b0392831692909116602082602481865afa9182156103f5575f9261164f575b509060446020925f604051958694859363a9059cbb60e01b8552600485015260248401525af180156103f55761163757005b6102349060203d6020116103ee576103e18183612cf4565b91506020823d60201161167c575b8161166a60209383612cf4565b81010312610236579051906044611605565b3d915061165d565b34610236576020366003190112610236576004356001600160401b038111610236576116b4903690600401612d30565b6116bc613128565b80516001600160401b0381116117cd576116d7600c54612dc8565b601f8111611787575b50602091601f821160011461171f5761170f925f9183611714575b50508160011b915f199060031b1c19161790565b600c55005b0151905083806116fb565b601f19821692600c5f525f516020613ae65f395f51905f52915f5b85811061176f57508360019510611757575b505050811b01600c55005b01515f1960f88460031b161c1916905582808061174c565b9192602060018192868501518155019401920161173a565b600c5f526117bd905f516020613ae65f395f51905f52601f840160051c810191602085106117c3575b601f0160051c0190612ec5565b826116e0565b90915081906117b0565b634e487b7160e01b5f52604160045260245ffd5b34610236576020366003190112610236576117fa612cac565b611802613128565b6001600160a01b03168015611828576001600160601b0360a01b60095416176009555f80f35b63d92e233d60e01b5f5260045ffd5b34610236575f36600319011261023657600b546040516001600160a01b039091168152602090f35b34610236575f366003190112610236576040515f600c5461187f81612dc8565b808452906001811690811561154a57506001146118a657611183836114cc81850382612cf4565b600c5f9081525f516020613ae65f395f51905f52939250905b8082106118d7575090915081016020016114cc6114bc565b9192600181602092548385880101520191019092916118bf565b34610236575f36600319011261023657611909613128565b5f516020613b265f395f51905f5280546001600160a01b031981169091555f906001600160a01b03167f8be0079c531659141344cd1fd0a4f28419497f9722a3daafe3b4186f6b6457e08280a3005b3461023657602036600319011261023657611971612cac565b6001600160a01b038116156119945761198b602091612f39565b54604051908152f35b6322718ad960e21b5f525f60045260245ffd5b34610236576020366003190112610236576004356119c3613128565b6003548111156119d257600355005b6307016e8560e21b5f5260045ffd5b34610236576119ef36612dae565b916119f8613128565b600455600555600655005b34610236576020366003190112610236576020611a216004356130d2565b6040516001600160a01b039091168152f35b34610236575f36600319011261023657611183604051611a54604082612cf4565b60058152640312e302e360dc1b6020820152604051918291602083526020830190612c88565b3461023657602036600319011261023657611a93612cac565b611a9b613128565b6001600160a01b03168015611828576001600160601b0360a01b600b541617600b555f80f35b34610236575f366003190112610236577f00000000000000000000000000000000000000000000000000000000000000006001600160a01b03163003611b185760206040515f516020613b465f395f51905f528152f35b63703e46dd60e11b5f5260045ffd5b34610236575f36600319011261023657611b3f613128565b600160ff19600d541617600d557fb5838f871ddee4623a406029b1a0b6013e0ec30f2dc114307f21459a800a8296602060405160018152a1005b604036600319011261023657611b8d612cac565b6024356001600160401b03811161023657611bac903690600401612d30565b6001600160a01b037f000000000000000000000000000000000000000000000000000000000000000016308114908115611d4b575b50611b1857611bee613128565b6040516352d1902d60e01b81526001600160a01b0383169290602081600481875afa5f9181611d17575b50611c305783634c9c8ce360e01b5f5260045260245ffd5b805f516020613b465f395f51905f52859203611d055750813b15611cf3575f516020613b465f395f51905f5280546001600160a01b031916821790557fbc7cd75a20ee27fd9adebab32041f755214dbc6bffa90cc0225b39da2e5c2d3b5f80a2815115611cdb575f8083602061023495519101845af43d15611cd3573d91611cb783612d15565b92611cc56040519485612cf4565b83523d5f602085013e613a87565b606091613a87565b505034611ce457005b63b398979f60e01b5f5260045ffd5b634c9c8ce360e01b5f5260045260245ffd5b632a87526960e21b5f5260045260245ffd5b9091506020813d602011611d43575b81611d3360209383612cf4565b8101031261023657519085611c18565b3d9150611d26565b5f516020613b465f395f51905f52546001600160a01b03161415905083611be1565b34610236575f36600319011261023657611d85613128565b60ff19600d5416600d557fb5838f871ddee4623a406029b1a0b6013e0ec30f2dc114307f21459a800a829660206040515f8152a1005b3461023657604036600319011261023657611dd4612cac565b611ddc612cc2565b5f516020613b865f395f51905f52549060ff8260401c1615916001600160401b0381168015908161252b575b6001149081612521575b159081612518575b506125095767ffffffffffffffff1981166001175f516020613b865f395f51905f5255826124dd575b506040928351611e538582612cf4565b600d81526c26b7b730b21026b7b739ba32b960991b6020820152845190611e7a8683612cf4565b60068252652720a226a7a760d11b6020830152611e95613953565b611e9d613953565b8051906001600160401b0382116117cd57611ec55f516020613b065f395f51905f5254612dc8565b601f8111612483575b50602090601f83116001146123e857611efd92915f91836123dd5750508160011b915f199060031b1c19161790565b5f516020613b065f395f51905f52555b8051906001600160401b0382116117cd57611f355f516020613bc65f395f51905f5254612dc8565b601f8111612383575b50602090601f831160011461230657611f6d92915f91836122fb5750508160011b915f199060031b1c19161790565b5f516020613bc65f395f51905f52555b611f85613953565b611f8d613953565b611f9633613061565b611f9e613953565b6001600160a01b0316801580156122ea575b611828576001600160601b0360a01b600954161760095560018060a01b03166001600160601b0360a01b600a541617600a556103e8600355620151804204825160a081018181106001600160401b038211176117cd5782916080918652662386f26fc100008152606460208201526032868201525f60608201520152662386f26fc10000600455606460055560326006555f600755600855612053600c54612dc8565b601f81116122bf575b5060387f697066733a2f2f516d596f75724d61696e466f6c646572486173682f0000000001600c556027825166121bdc9b9b195d60ca1b815260016007820152206120a78154612dc8565b601f811161229f575b50600e661a1bdc9b9b195d60ca1b019055602882516723363ab33335b4b760c11b815260016008820152206120ee6120e88254612dc8565b82612edb565b60106733363ab33335b4b760c11b01905560288251674e61727768616c6560c01b815260016008820152206121266120e88254612dc8565b6010676e61727768616c6560c01b019055602882516720b73a3632b6b7b760c11b8152600160088201522061215e6120e88254612dc8565b60106730b73a3632b6b7b760c11b0190556028825167141d59191d185a5b60c21b815260016008820152206121966120e88254612dc8565b6010671c1d59191d185a5b60c21b019055602682516529b834b937b760d11b815260016006820152206121cc6120e88254612dc8565b600c6539b834b937b760d11b0190556026825165426561726c7960d01b815260016006820152206122006120e88254612dc8565b600c65626561726c7960d01b01905560268251654d797374696360d01b815260016006820152206122346120e88254612dc8565b600c656d797374696360d01b01905561224957005b60207fc7f505b2f371ae2175ee4913f4499e1f2633a7b5936321eed1cdaeb6115181d29168ff0000000000000000195f516020613b865f395f51905f5254165f516020613b865f395f51905f52555160018152a1005b6122b990825f52601f60205f20910160051c810190612ec5565b836120b0565b600c5f526122e490601f0160051c5f516020613ae65f395f51905f5290810190612ec5565b8261205c565b506001600160a01b03821615611fb0565b0151905087806116fb565b90601f198316915f516020613bc65f395f51905f525f52815f20925f5b81811061236b5750908460019594939210612353575b505050811b015f516020613bc65f395f51905f5255611f7d565b01515f1960f88460031b161c19169055868080612339565b92936020600181928786015181550195019301612323565b5f516020613bc65f395f51905f525f526123d7907ff4bad0a69248f59680a4f2b3000328cec71a413447c96781cfe5996daa8c456e601f850160051c810191602086106117c357601f0160051c0190612ec5565b86611f3e565b0151905088806116fb565b90601f198316915f516020613b065f395f51905f525f527f37c58c799b6609234b945e882912ee9ad34948a1dfaa20a97485e1a7752bbf81925f5b81811061246b5750908460019594939210612453575b505050811b015f516020613b065f395f51905f5255611f0d565b01515f1960f88460031b161c19169055878080612439565b92936020600181928786015181550195019301612423565b5f516020613b065f395f51905f525f526124d7907f37c58c799b6609234b945e882912ee9ad34948a1dfaa20a97485e1a7752bbf81601f850160051c810191602086106117c357601f0160051c0190612ec5565b87611ece565b68ffffffffffffffffff191668010000000000000001175f516020613b865f395f51905f525583611e43565b63f92ee8a960e01b5f5260045ffd5b90501585611e1a565b303b159150611e12565b849150611e08565b346102365761254136612d74565b5050505f604051612553602082612cf4565b52631e953aff60e21b5f5260045ffd5b34610236576020366003190112610236576004356001600160401b038111610236576114cc60208061259c611183943690600401612d30565b604051928184925191829101835e81016001815203019020612e00565b34610236575f366003190112610236576125d1613128565b5f80808060018060a01b035f516020613b265f395f51905f52541647908282156125fe575bf1156103f557005b506108fc6125f6565b34610236575f36600319011261023657602060ff600d54166040519015158152f35b346102365761263736612dae565b600b546001600160a01b0316330361270d576001600160a01b0361265a846130ef565b161561124e577f8721dd7f8c57f80e1587c839abf16d2bd22796239457f4d53791dc1d9b673c7991604091845f525f602052825f2082155f146126b5576003016126a5828254612eb8565b90555b82519182526020820152a2005b600183036126d2576004016126cb828254612eb8565b90556126a8565b600283036126e8576005016126cb828254612eb8565b600383146126f7575b506126a8565b600601612705828254612eb8565b9055856126f1565b60405162461bcd60e51b815260206004820152601560248201527427b7363c9022bc3832b234ba34b7b721b2b73a32b960591b6044820152606490fd5b346102365761275836612d74565b505050631e953aff60e21b5f5260045ffd5b34610236575f366003190112610236576020600254604051908152f35b34610236576040366003190112610236576004356024356001600160401b038111610236576127ba903690600401612d30565b6127c3826130d2565b336001600160a01b0390911603610a1e57600a546040516370a0823160e01b81523360048201526001600160a01b0390911690602081602481855afa80156103f5575f906129f9575b60329150106104005760205f916064604051809481936323b872dd60e01b8352336004840152306024840152603260448401525af180156103f5576129dc575b50815f525f60205260405f209080519160208201928320926040936002602086516128778882612cf4565b8281520161068760f41b815220145f146128d0575060030180549160058301809311610450575f516020613ba65f395f51905f52926128c092555b835193808552840190612c88565b91603260208201528033930390a3005b825181206006602086516128e48882612cf4565b828152016561747461636b60d01b815220145f14612927575060040180549160038301809311610450575f516020613ba65f395f51905f52926128c092556128b2565b8251812060076020865161293b8882612cf4565b8281520166646566656e736560c81b815220145f1461297f575060050180549160038301809311610450575f516020613ba65f395f51905f52926128c092556128b2565b825190206004602085516129938782612cf4565b828152016318dc9a5d60e21b815220146129c0575b506128c05f516020613ba65f395f51905f52916128b2565b60060180549160028301809311610450579190556128c06129a8565b6129f49060203d6020116103ee576103e18183612cf4565b61284c565b506020813d602011612a24575b81612a1360209383612cf4565b81010312610236576032905161280c565b3d9150612a06565b3461023657604036600319011261023657612a45612cac565b602435612a51816130d2565b33151580612b05575b80612ae2575b612acf5781906001600160a01b0384811691167f8c5be1e5ebec7d5bd14f71427d1e84f3dd0314c0f7b2291e5b200ac8c7c3b9255f80a45f9081525f516020613b665f395f51905f526020526040902080546001600160a01b0319166001600160a01b03909216919091179055005b63a9fbf51f60e01b5f523360045260245ffd5b50612aec81612f71565b335f908152602091909152604090205460ff1615612a60565b506001600160a01b038116331415612a5a565b3461023657602036600319011261023657600435612b35816130d2565b505f525f516020613b665f395f51905f52602052602060018060a01b0360405f205416604051908152f35b34610236575f366003190112610236576040515f5f516020613b065f395f51905f5254612b8c81612dc8565b808452906001811690811561154a5750600114612bb357611183836114cc81850382612cf4565b5f516020613b065f395f51905f525f9081527f37c58c799b6609234b945e882912ee9ad34948a1dfaa20a97485e1a7752bbf81939250905b808210612c03575090915081016020016114cc6114bc565b919260018160209254838588010152019101909291612beb565b34610236576020366003190112610236576004359063ffffffff60e01b8216809203610236576020916380ac58cd60e01b8114908115612c77575b8115612c66575b5015158152f35b6301ffc9a760e01b14905083612c5f565b635b5e139f60e01b81149150612c58565b805180835260209291819084018484015e5f828201840152601f01601f1916010190565b600435906001600160a01b038216820361023657565b602435906001600160a01b038216820361023657565b61012081019081106001600160401b038211176117cd57604052565b90601f801991011681019081106001600160401b038211176117cd57604052565b6001600160401b0381116117cd57601f01601f191660200190565b81601f8201121561023657602081359101612d4a82612d15565b92612d586040519485612cf4565b8284528282011161023657815f92602092838601378301015290565b6060906003190112610236576004356001600160a01b038116810361023657906024356001600160a01b0381168103610236579060443590565b606090600319011261023657600435906024359060443590565b90600182811c92168015612df6575b6020831014612de257565b634e487b7160e01b5f52602260045260245ffd5b91607f1691612dd7565b9060405191825f825492612e1384612dc8565b8084529360018116908115612e7e5750600114612e3a575b50612e3892500383612cf4565b565b90505f9291925260205f20905f915b818310612e62575050906020612e38928201015f612e2b565b6020919350806001915483858901015201910190918492612e49565b905060209250612e3894915060ff191682840152151560051b8201015f612e2b565b90816020910312610236575180151581036102365790565b9190820180921161045057565b818110612ed0575050565b5f8155600101612ec5565b90601f8111612ee8575050565b612e38915f52601f60205f20910160051c810190612ec5565b9190601f8111612f1057505050565b612e38925f5260205f20906020601f840160051c830193106117c357601f0160051c0190612ec5565b6001600160a01b03165f9081527f80bb2b638cc20bc4d0a60d66940f3ab4a00c1d7b313497ca82fb0b4ab00793036020526040902090565b6001600160a01b03165f9081527f80bb2b638cc20bc4d0a60d66940f3ab4a00c1d7b313497ca82fb0b4ab00793056020526040902090565b15612fb057565b60405162461bcd60e51b815260206004820152601c60248201527f436f6e747261637420697320656d657267656e637920706175736564000000006044820152606490fd5b9190811015610a2d5760051b0190565b61300f8154612dc8565b9081613019575050565b81601f5f931160011461302a575055565b8183526020832061304691601f0160051c810190600101612ec5565b8082528160208120915555565b5f1981146104505760010190565b6001600160a01b031680156130bf575f516020613b265f395f51905f5280546001600160a01b0319811683179091556001600160a01b03167f8be0079c531659141344cd1fd0a4f28419497f9722a3daafe3b4186f6b6457e05f80a3565b631e4fbdf760e01b5f525f60045260245ffd5b6130db816130ef565b906001600160a01b038216156107bc575090565b5f9081527f80bb2b638cc20bc4d0a60d66940f3ab4a00c1d7b313497ca82fb0b4ab007930260205260409020546001600160a01b031690565b5f516020613b265f395f51905f52546001600160a01b0316330361314857565b63118cdaa760e01b5f523360045260245ffd5b9061316582612d15565b6131726040519182612cf4565b8281528092613183601f1991612d15565b0190602036910137565b805f9172184f03e93ff9f4daa797ed6e38ed64bf6a1f0160401b8210156132b2575b806d04ee2d6d415b85acef8100000000600a921015613297575b662386f26fc10000811015613283575b6305f5e100811015613272575b612710811015613263575b6064811015613255575b101561324a575b600a60216132126001850161315b565b938401015b5f1901916f181899199a1a9b1b9c1cb0b131b232b360811b8282061a835304801561324557600a9091613217565b505090565b600190910190613202565b6064600291049301926131fb565b612710600491049301926131f1565b6305f5e100600891049301926131e6565b662386f26fc10000601091049301926131d9565b6d04ee2d6d415b85acef8100000000602091049301926131c9565b506040915072184f03e93ff9f4daa797ed6e38ed64bf6a1f0160401b81046131af565b805160208201908120916040926006602085516132f28782612cf4565b828152016521b7b6b6b7b760d11b8152201461336c578051822060046020855161331c8782612cf4565b82815201635261726560e01b81522014613364576004916020915190209261334681519182612cf4565b82815201634570696360e01b8152201461335f57601990565b601490565b505050600f90565b505050600a90565b81601f820112156102365780519061338b82612d15565b926133996040519485612cf4565b8284526020838301011161023657815f9260208093018386015e8301015290565b60405160c09392916133cc8583612cf4565b60058252602082019460a03687375f5b60058110613472575050600560025404604051926060840191845260606020850152518091526080830195905f5b81811061345c57505050818503604083015292936001600160a01b03909316927fb586e390b962c750a8f2c646ec7d734b441fe3b2c19281e21749def532c70bf592829161345791612c88565b0390a2565b825188526020978801979092019160010161340a565b61347d600254613053565b908160025560018060a01b036009541660405163a21deca760e01b81525f8160648160018060a01b038a16958660048301528860248301528760448301525afa80156103f5575f915f915f915f5f905f925f946138b4575b50604051966134e388612cd8565b87526020870195865260408701948552606087019081526080870191825260a087019283528a870193845260e08701945f8652610100880196600188528b5f525f60205260405f2098518051906001600160401b0382116117cd576135528261354c8d54612dc8565b8d612f01565b602090601f83116001146138515761358092915f91836137775750508160011b915f199060031b1c19161790565b89555b51805160018a01916001600160401b0382116117cd576135ad826135a78554612dc8565b85612f01565b602090601f83116001146137ee576135db92915f91836137775750508160011b915f199060031b1c19161790565b90555b51805160028901916001600160401b0382116117cd57613602826135a78554612dc8565b602090601f831160011461378257918061363a9260089b9a9998979695945f926137775750508160011b915f199060031b1c19161790565b90555b5160038801555160048701555160058601555160068501555160078401555191015580156137645761366e836130ef565b6001600160a01b03811680151592859184613728575b61368d89612f39565b805460010190555f8381527f80bb2b638cc20bc4d0a60d66940f3ab4a00c1d7b313497ca82fb0b4ab00793026020526040812080546001600160a01b031916841790557fddf252ad1be2c89b69c2b068fc378daa952ba7f163c4a11628f55a4df523b3ef9080a450613715578451811015610a2d5760019160208260051b87010152016133dc565b6339e3563760e11b5f525f60045260245ffd5b5f8381525f516020613b665f395f51905f526020526040902080546001600160a01b031916905561375884612f39565b80545f19019055613684565b633250574960e11b5f525f60045260245ffd5b015190505f806116fb565b90601f19831691845f52815f20925f5b8181106137d6575091600193918560089d9c9b9a9998979694106137be575b505050811b01905561363d565b01515f1960f88460031b161c191690555f80806137b1565b92936020600181928786015181550195019301613792565b90601f19831691845f52815f20925f5b8181106138395750908460019594939210613821575b505050811b0190556135de565b01515f1960f88460031b161c191690555f8080613814565b929360206001819287860151815501950193016137fe565b90601f198316918c5f52815f20925f5b81811061389c5750908460019594939210613884575b505050811b018955613583565b01515f1960f88460031b161c191690555f8080613877565b92936020600181928786015181550195019301613861565b96505050505050503d805f833e6138cb8183612cf4565b81019060e0818303126102365780516001600160401b03811161023657826138f4918301613374565b60208201516001600160401b0381116102365783613913918401613374565b926040830151906001600160401b03821161023657613933918401613374565b6060830151608084015160a0850151948a0151939594929392915f6134d5565b60ff5f516020613b865f395f51905f525460401c161561396f57565b631afcd79f60e31b5f5260045ffd5b908151811015610a2d570160200190565b919091805115613a70578051600281018091116104505760039004600281901b906001600160fe1b03811603610450576139c89061315b565b90602082019080815182019560208701908151925f83525b888110613a225750506003939495965052510680600114613a1057600214613a06575090565b603d905f19015390565b50603d90815f19820153600119015390565b600360049199969901986001603f8b5182828260121c16870101518453828282600c1c16870101518385015382828260061c16870101516002850153168401015160038201530194976139e0565b509050604051613a81602082612cf4565b5f815290565b90613aab5750805115613a9c57805190602001fd5b63d6bda27560e01b5f5260045ffd5b81511580613adc575b613abc575090565b639996b31560e01b5f9081526001600160a01b0391909116600452602490fd5b50803b15613ab456fedf6966c971051c3d54ec59162606531493a51404a002842f56009d7e5cf4a8c780bb2b638cc20bc4d0a60d66940f3ab4a00c1d7b313497ca82fb0b4ab00793009016d09d72d40fdae2fd8ceac6b6234c7706214fd39c1cd1e609a0528c199300360894a13ba1a3210667c828492db98dca3e2076cc3735a920a3ca505d382bbc80bb2b638cc20bc4d0a60d66940f3ab4a00c1d7b313497ca82fb0b4ab0079304f0c57e16840df040f15088dc2f81fe391c3923bec73e23a9662efc9c229c6a0042878ccfacea98fdb5bcfc6c9373950c5ec7c66dca0bb63fc79625d153797ca980bb2b638cc20bc4d0a60d66940f3ab4a00c1d7b313497ca82fb0b4ab0079301a26469706673582212201d8eda3270feb42825023a9874d9e12bae6157bf7ba92dd306be36906688a84364736f6c634300081c0033f0c57e16840df040f15088dc2f81fe391c3923bec73e23a9662efc9c229c6a00","linkReferences":{}},"methodIdentifiers":{"UPGRADE_INTERFACE_VERSION()":"ad3cb1cc","applyExpeditionGains(uint256,uint256,uint256)":"245e2497","approve(address,uint256)":"095ea7b3","balanceOf(address)":"70a08231","baseImageURI()":"74f82e30","buyPackWithCookies()":"d94415c0","buyPackWithMON()":"d12a91b6","buyStatBoost(uint256,string)":"10b77c26","cookiesToken()":"af61934f","emergencyPause()":"51858e27","emergencyPaused()":"27c830a9","emergencyUnpause()":"4a4e3bd5","evolve(uint256[])":"ceb93182","expeditionCenter()":"76775b0f","getApproved(uint256)":"081812fc","initialize(address,address)":"485cc955","isApprovedForAll(address,address)":"e985e9c5","maxSupply()":"d5abeb01","nadmons(uint256)":"a73a18f5","name()":"06fdde03","owner()":"8da5cb5b","ownerOf(uint256)":"6352211e","packPricing()":"de847568","proxiableUUID()":"52d1902d","randomizer()":"f10fb584","renounceOwnership()":"715018a6","resupply(uint256)":"7088183b","safeTransferFrom(address,address,uint256)":"42842e0e","safeTransferFrom(address,address,uint256,bytes)":"b88d4fde","setApprovalForAll(address,bool)":"a22cb465","setBaseImageURI(string)":"8647ca76","setExpeditionCenter(address)":"53326d67","setPackPricing(uint256,uint256,uint256)":"6dad5de7","setRandomizer(address)":"767bcab5","supportsInterface(bytes4)":"01ffc9a7","symbol()":"95d89b41","tokenURI(uint256)":"c87b56dd","totalSupply()":"18160ddd","transferFrom(address,address,uint256)":"23b872dd","transferOwnership(address)":"f2fde38b","typeToImageHash(string)":"40e85c2a","upgradeToAndCall(address,bytes)":"4f1ef286","version()":"54fd4d50","withdraw()":"3ccfd60b","withdrawCookies()":"8c748402"},"id":55}