{"abi":[{"type":"constructor","inputs":[],"stateMutability":"nonpayable"},{"type":"function","name":"MAX_DAILY_BATTLES","inputs":[],"outputs":[{"name":"","type":"uint256","internalType":"uint256"}],"stateMutability":"view"},{"type":"function","name":"MAX_DIFFICULTY","inputs":[],"outputs":[{"name":"","type":"uint256","internalType":"uint256"}],"stateMutability":"view"},{"type":"function","name":"UPGRADE_INTERFACE_VERSION","inputs":[],"outputs":[{"name":"","type":"string","internalType":"string"}],"stateMutability":"view"},{"type":"function","name":"battlePvE","inputs":[{"name":"tokenId","type":"uint256","internalType":"uint256"},{"name":"difficulty","type":"uint256","internalType":"uint256"}],"outputs":[],"stateMutability":"nonpayable"},{"type":"function","name":"cookiesToken","inputs":[],"outputs":[{"name":"","type":"address","internalType":"contract ICookiesToken"}],"stateMutability":"view"},{"type":"function","name":"difficultyRewards","inputs":[{"name":"","type":"uint256","internalType":"uint256"}],"outputs":[{"name":"","type":"uint256","internalType":"uint256"}],"stateMutability":"view"},{"type":"function","name":"emergencyPause","inputs":[],"outputs":[],"stateMutability":"nonpayable"},{"type":"function","name":"emergencyPaused","inputs":[],"outputs":[{"name":"","type":"bool","internalType":"bool"}],"stateMutability":"view"},{"type":"function","name":"emergencyUnpause","inputs":[],"outputs":[],"stateMutability":"nonpayable"},{"type":"function","name":"getBattleHistory","inputs":[{"name":"player","type":"address","internalType":"address"}],"outputs":[{"name":"","type":"tuple[]","internalType":"struct PvEBattle.BattleResult[]","components":[{"name":"playerTokenId","type":"uint256","internalType":"uint256"},{"name":"difficulty","type":"uint256","internalType":"uint256"},{"name":"playerWon","type":"bool","internalType":"bool"},{"name":"cookiesReward","type":"uint256","internalType":"uint256"},{"name":"wasCritical","type":"bool","internalType":"bool"},{"name":"timestamp","type":"uint256","internalType":"uint256"}]}],"stateMutability":"view"},{"type":"function","name":"getDailyStats","inputs":[{"name":"player","type":"address","internalType":"address"}],"outputs":[{"name":"battlesUsed","type":"uint256","internalType":"uint256"},{"name":"battlesRemaining","type":"uint256","internalType":"uint256"}],"stateMutability":"view"},{"type":"function","name":"initialize","inputs":[{"name":"_nadmonNFT","type":"address","internalType":"address"},{"name":"_cookiesToken","type":"address","internalType":"address"},{"name":"_randomizer","type":"address","internalType":"address"}],"outputs":[],"stateMutability":"nonpayable"},{"type":"function","name":"isDifficultyCompleted","inputs":[{"name":"player","type":"address","internalType":"address"},{"name":"difficulty","type":"uint256","internalType":"uint256"}],"outputs":[{"name":"completed","type":"bool","internalType":"bool"}],"stateMutability":"view"},{"type":"function","name":"nadmonNFT","inputs":[],"outputs":[{"name":"","type":"address","internalType":"contract INadmonNFT"}],"stateMutability":"view"},{"type":"function","name":"owner","inputs":[],"outputs":[{"name":"","type":"address","internalType":"address"}],"stateMutability":"view"},{"type":"function","name":"playerBattleHistory","inputs":[{"name":"","type":"address","internalType":"address"},{"name":"","type":"uint256","internalType":"uint256"}],"outputs":[{"name":"playerTokenId","type":"uint256","internalType":"uint256"},{"name":"difficulty","type":"uint256","internalType":"uint256"},{"name":"playerWon","type":"bool","internalType":"bool"},{"name":"cookiesReward","type":"uint256","internalType":"uint256"},{"name":"wasCritical","type":"bool","internalType":"bool"},{"name":"timestamp","type":"uint256","internalType":"uint256"}],"stateMutability":"view"},{"type":"function","name":"playerDailyStats","inputs":[{"name":"","type":"address","internalType":"address"}],"outputs":[{"name":"lastResetDay","type":"uint256","internalType":"uint256"},{"name":"battlesUsed","type":"uint256","internalType":"uint256"}],"stateMutability":"view"},{"type":"function","name":"previewNPCStats","inputs":[{"name":"difficulty","type":"uint256","internalType":"uint256"}],"outputs":[{"name":"minHp","type":"uint256","internalType":"uint256"},{"name":"maxHp","type":"uint256","internalType":"uint256"},{"name":"minAttack","type":"uint256","internalType":"uint256"},{"name":"maxAttack","type":"uint256","internalType":"uint256"},{"name":"minDefense","type":"uint256","internalType":"uint256"},{"name":"maxDefense","type":"uint256","internalType":"uint256"},{"name":"minCrit","type":"uint256","internalType":"uint256"},{"name":"maxCrit","type":"uint256","internalType":"uint256"}],"stateMutability":"pure"},{"type":"function","name":"proxiableUUID","inputs":[],"outputs":[{"name":"","type":"bytes32","internalType":"bytes32"}],"stateMutability":"view"},{"type":"function","name":"randomizer","inputs":[],"outputs":[{"name":"","type":"address","internalType":"contract INadmonRandomizer"}],"stateMutability":"view"},{"type":"function","name":"renounceOwnership","inputs":[],"outputs":[],"stateMutability":"nonpayable"},{"type":"function","name":"setDifficultyReward","inputs":[{"name":"difficulty","type":"uint256","internalType":"uint256"},{"name":"reward","type":"uint256","internalType":"uint256"}],"outputs":[],"stateMutability":"nonpayable"},{"type":"function","name":"setRandomizer","inputs":[{"name":"newRandomizer","type":"address","internalType":"address"}],"outputs":[],"stateMutability":"nonpayable"},{"type":"function","name":"transferOwnership","inputs":[{"name":"newOwner","type":"address","internalType":"address"}],"outputs":[],"stateMutability":"nonpayable"},{"type":"function","name":"upgradeToAndCall","inputs":[{"name":"newImplementation","type":"address","internalType":"address"},{"name":"data","type":"bytes","internalType":"bytes"}],"outputs":[],"stateMutability":"payable"},{"type":"function","name":"version","inputs":[],"outputs":[{"name":"","type":"string","internalType":"string"}],"stateMutability":"pure"},{"type":"event","name":"EmergencyPauseToggled","inputs":[{"name":"paused","type":"bool","indexed":false,"internalType":"bool"}],"anonymous":false},{"type":"event","name":"Initialized","inputs":[{"name":"version","type":"uint64","indexed":false,"internalType":"uint64"}],"anonymous":false},{"type":"event","name":"OwnershipTransferred","inputs":[{"name":"previousOwner","type":"address","indexed":true,"internalType":"address"},{"name":"newOwner","type":"address","indexed":true,"internalType":"address"}],"anonymous":false},{"type":"event","name":"PvEBattleCompleted","inputs":[{"name":"player","type":"address","indexed":true,"internalType":"address"},{"name":"tokenId","type":"uint256","indexed":true,"internalType":"uint256"},{"name":"difficulty","type":"uint256","indexed":false,"internalType":"uint256"},{"name":"playerWon","type":"bool","indexed":false,"internalType":"bool"},{"name":"cookiesReward","type":"uint256","indexed":false,"internalType":"uint256"},{"name":"wasCritical","type":"bool","indexed":false,"internalType":"bool"}],"anonymous":false},{"type":"event","name":"Upgraded","inputs":[{"name":"implementation","type":"address","indexed":true,"internalType":"address"}],"anonymous":false},{"type":"error","name":"AddressEmptyCode","inputs":[{"name":"target","type":"address","internalType":"address"}]},{"type":"error","name":"DailyLimitReached","inputs":[]},{"type":"error","name":"ERC1967InvalidImplementation","inputs":[{"name":"implementation","type":"address","internalType":"address"}]},{"type":"error","name":"ERC1967NonPayable","inputs":[]},{"type":"error","name":"FailedCall","inputs":[]},{"type":"error","name":"InvalidDifficulty","inputs":[]},{"type":"error","name":"InvalidInitialization","inputs":[]},{"type":"error","name":"NotInitializing","inputs":[]},{"type":"error","name":"NotYourNadmon","inputs":[]},{"type":"error","name":"OwnableInvalidOwner","inputs":[{"name":"owner","type":"address","internalType":"address"}]},{"type":"error","name":"OwnableUnauthorizedAccount","inputs":[{"name":"account","type":"address","internalType":"address"}]},{"type":"error","name":"UUPSUnauthorizedCallContext","inputs":[]},{"type":"error","name":"UUPSUnsupportedProxiableUUID","inputs":[{"name":"slot","type":"bytes32","internalType":"bytes32"}]},{"type":"error","name":"ZeroAddress","inputs":[]}],"bytecode":{"object":"0x60a080604052346100d057306080526004805460ff60a01b191690555f5160206119575f395f51905f5254604081901c60ff166100c1576002600160401b03196001600160401b0382160161006e575b60405161188290816100d58239608051818181610f03015261102d0152f35b6001600160401b0319166001600160401b039081175f5160206119575f395f51905f525581527fc7f505b2f371ae2175ee4913f4499e1f2633a7b5936321eed1cdaeb6115181d290602090a15f8061004f565b63f92ee8a960e01b5f5260045ffd5b5f80fdfe6080806040526004361015610012575f80fd5b5f905f3560e01c90816314cc282b146114ca5750806317e1a2071461148a57806327c830a9146114655780632e653c0f1461130957806331e6a67f146112755780634487c4b4146112355780634a4e3bd5146111e45780634f1ef28614610fb157806351858e2714610f5757806352d1902d14610ef157806354fd4d5014610eaa578063715018a614610e43578063767bcab514610df757806388ba598614610dc65780638da5cb5b14610d9257806390eafc1914610c1c5780639577dbf614610c0157806398980ba314610bd9578063a16295b114610baa578063ad3cb1cc14610b5f578063af61934f14610b37578063c0c53b8b1461088d578063cae89bd1146101be578063e44c5d0314610194578063f10fb5841461016b5763f2fde38b1461013c575f80fd5b34610168576020366003190112610168576101656101586114e3565b610160611730565b6116bf565b80f35b80fd5b50346101685780600319360112610168576004546040516001600160a01b039091168152602090f35b50346101685760203660031901126101685760406020916004358152600583522054604051908152f35b5034610624576101cd36611526565b60ff60045460a01c16610849576002546040516331a9108f60e11b81526004810184905290602090829060249082906001600160a01b03165afa908115610619575f91610807575b50336001600160a01b03909116036107f8576001811080156107ee575b6107df57620151804204335f525f60205260405f2090815481116107a6575b5050335f525f60205260405f206001810190815491600f8310156107975761027a60249361165e565b905560025460405163a73a18f560e01b815260048101869052925f9184919082906001600160a01b03165afa918215610619575f905f5f5f925f966106f7575b5060048054604051633ee667e760e01b8152918201899052602482018a90523360448301526001600160a01b031692905f81606481875afa8015610619575f905f925f5f915f9361066f575b50906103779493929161034f60409b8c519e8f9c8d9b8c9b636895447160e01b8d5260048d015260248c015260448b015260648a015261016060848a0152610164890190611596565b9460a488015260c487015260e486015261010485015260031984830301610124850152611596565b3361014483015203915afa8015610619575f925f91610628575b5082156105a25783865260056020526002604087205492018487528060205260ff6040882054161561055b575b5060035486906001600160a01b0316803b15610557576040516340c10f1960e01b8152336004820152602481018590529082908290604490829084905af1801561054c57610533575b50505b6040516104168161153c565b85815260208101858152604082019415159283865260608301858152608084019115159687835260a0850193428552338c52600160205260408c208054906801000000000000000082101561051f5790610475916001820181556114f9565b96909661050b5760059594926104c994926104ab92518955516001890155511515600288019060ff801983541691151516179055565b516003860155511515600485019060ff801983541691151516179055565b519101556040519384526020840152604083015260608201527fdf3af46a7b6dac2982e355217ac1ecc36ca7a88a3b883343de6fd4eb02ce8bbe60803392a380f35b634e487b7160e01b8d5260048d905260248dfd5b634e487b7160e01b8e52604160045260248efd5b8161053d91611558565b61054857855f610407565b8580fd5b6040513d84823e3d90fd5b5080fd5b9160038102908082046003149015171561058e5760011c9184875260205260408620600160ff198254161790555f6103be565b634e487b7160e01b87526011600452602487fd5b5f8481526005602052604090205460035460029190911c92506001600160a01b0316803b15610624576040516340c10f1960e01b815233600482015260248101849052905f908290604490829084905af1801561061957610604575b5061040a565b6106119196505f90611558565b5f945f6105fe565b6040513d5f823e3d90fd5b5f80fd5b9250506040823d604011610667575b8161064460409383611558565b8101031261062457610661602061065a846116b2565b93016116b2565b5f610391565b3d9150610637565b9450505050503d805f833e6106848183611558565b81019060c08183031261062457805167ffffffffffffffff811161062457826106ae91830161166c565b5060208101519667ffffffffffffffff8811610624576106d561037793604099840161166c565b828901516060840151608085015160a090950151939a91955091939190610306565b9550505050503d805f843e61070c8184611558565b82016101208382031261062457825167ffffffffffffffff8111610624578161073691850161166c565b50602083015167ffffffffffffffff8111610624578161075791850161166c565b9060408401519067ffffffffffffffff82116106245761077891850161166c565b506060830151608084015160a085015160c0909501519491905f6102ba565b63f402e5b160e01b5f5260045ffd5b5f60018301558155600260019101905b6005811161025157806107da915f528260205260405f2060ff19815416905561165e565b6107b6565b63eff9b19d60e01b5f5260045ffd5b5060058111610232565b63e32aa82960e01b5f5260045ffd5b90506020813d602011610841575b8161082260209383611558565b8101031261062457516001600160a01b0381168103610624575f610215565b3d9150610815565b606460405162461bcd60e51b815260206004820152602060248201527f50764520626174746c65732061726520656d657267656e6379207061757365646044820152fd5b34610624576060366003190112610624576108a66114e3565b6024356001600160a01b03811690819003610624576044356001600160a01b0381169190829003610624575f51602061182d5f395f51905f52549260ff8460401c16159367ffffffffffffffff811680159081610b2f575b6001149081610b25575b159081610b1c575b50610b0d5767ffffffffffffffff1981166001175f51602061182d5f395f51905f525584610ae1575b50610942611763565b61094a611763565b610953336116bf565b61095b611763565b6001600160a01b031680158015610ad9575b8015610ad1575b610ac257600280546001600160a01b0319908116929092179055600380548216929092179091556004805490911691909117905560056020819052600a7f1471eb6eb2c5e789fc3de43f8ce62938c7d1836ec861730447e2ada8fd81017b5560147f89832631fb3c3307a103ba2c84ab569c64d6182a18893dcd163f0f1c2090733a5560237fa9bc9a3a348c357ba16b37005d7e6b3236198c0e939f4af8c5f19b8deeb8ebc05560377f3eec716f11ba9e820c81ca75eb978ffb45831ef8b7a53e5e422c26008e1ca6d5555f5260507f458b30c2d72bfd2c6317304a4594ecbafe5f729d3111b65fdc3a33bd48e5432d55610a6b57005b68ff0000000000000000195f51602061182d5f395f51905f5254165f51602061182d5f395f51905f52557fc7f505b2f371ae2175ee4913f4499e1f2633a7b5936321eed1cdaeb6115181d2602060405160018152a1005b63d92e233d60e01b5f5260045ffd5b508215610974565b50811561096d565b68ffffffffffffffffff191668010000000000000001175f51602061182d5f395f51905f525584610939565b63f92ee8a960e01b5f5260045ffd5b90501586610910565b303b159150610908565b8691506108fe565b34610624575f366003190112610624576003546040516001600160a01b039091168152602090f35b34610624575f36600319011261062457610ba6604051610b80604082611558565b60058152640352e302e360dc1b6020820152604051918291602083526020830190611596565b0390f35b34610624576020366003190112610624576040610bcd610bc86114e3565b611612565b82519182526020820152f35b34610624575f366003190112610624576002546040516001600160a01b039091168152602090f35b34610624575f366003190112610624576020604051600f8152f35b3461062457602036600319011261062457600435600f8102811590828104600f14821715610d7e57603c019081603c11610d7e578260031b838104600814821715610d7e57600f019283600f11610d7e5760058102818104600514831715610d7e57600a019182600a11610d7e57600382029182046003141715610d7e5760050180600511610d7e576014830283810460141484151715610d7e57606490046014850285810460141486151715610d7e5760649004926014810281810460141482151715610d7e5760649004601484029684880460141485151715610d7e57610d52610d41610d30610d1f60646101009c0497610d19818d611605565b9b6115f8565b98610d2a8186611605565b946115f8565b93610d3b8187611605565b956115f8565b94610d4c8188611605565b966115f8565b95604051978852602088015260408701526060860152608085015260a084015260c083015260e0820152f35b634e487b7160e01b5f52601160045260245ffd5b34610624575f366003190112610624575f5160206117ed5f395f51905f52546040516001600160a01b039091168152602090f35b34610624576040366003190112610624576020610ded610de46114e3565b602435906115ba565b6040519015158152f35b3461062457602036600319011261062457610e106114e3565b610e18611730565b6001600160a01b03168015610ac2576bffffffffffffffffffffffff60a01b60045416176004555f80f35b34610624575f36600319011261062457610e5b611730565b5f5160206117ed5f395f51905f5280546001600160a01b031981169091555f906001600160a01b03167f8be0079c531659141344cd1fd0a4f28419497f9722a3daafe3b4186f6b6457e08280a3005b34610624575f36600319011261062457610ba6604051610ecb604082611558565b60058152640312e302e360dc1b6020820152604051918291602083526020830190611596565b34610624575f366003190112610624577f00000000000000000000000000000000000000000000000000000000000000006001600160a01b03163003610f485760206040515f51602061180d5f395f51905f528152f35b63703e46dd60e11b5f5260045ffd5b34610624575f36600319011261062457610f6f611730565b6004805460ff60a01b1916600160a01b179055604051600181527fb5838f871ddee4623a406029b1a0b6013e0ec30f2dc114307f21459a800a829690602090a1005b604036600319011261062457610fc56114e3565b6024359067ffffffffffffffff8211610624573660238301121561062457816004013590610ff28261157a565b916110006040519384611558565b8083526020830193366024838301011161062457815f926024602093018737840101526001600160a01b037f0000000000000000000000000000000000000000000000000000000000000000163081149081156111c2575b50610f4857611065611730565b6040516352d1902d60e01b81526001600160a01b0382169390602081600481885afa5f918161118e575b506110a75784634c9c8ce360e01b5f5260045260245ffd5b805f51602061180d5f395f51905f5286920361117c5750823b1561116a575f51602061180d5f395f51905f5280546001600160a01b031916821790557fbc7cd75a20ee27fd9adebab32041f755214dbc6bffa90cc0225b39da2e5c2d3b5f80a2825115611151575f8091611147945190845af43d15611149573d9161112b8361157a565b926111396040519485611558565b83523d5f602085013e61178e565b005b60609161178e565b5050503461115b57005b63b398979f60e01b5f5260045ffd5b634c9c8ce360e01b5f5260045260245ffd5b632a87526960e21b5f5260045260245ffd5b9091506020813d6020116111ba575b816111aa60209383611558565b810103126106245751908661108f565b3d915061119d565b5f51602061180d5f395f51905f52546001600160a01b03161415905084611058565b34610624575f366003190112610624576111fc611730565b60ff60a01b19600454166004557fb5838f871ddee4623a406029b1a0b6013e0ec30f2dc114307f21459a800a829660206040515f8152a1005b346106245761124336611526565b9061124c611730565b60018110801561126b575b6107df575f52600560205260405f20555f80f35b5060058111611257565b346106245760403660031901126106245761128e6114e3565b6001600160a01b03165f908152600160205260409020805460243591908210156106245760c0916112be916114f9565b5080549060018101549060ff600282015416600382015490600560ff6004850154169301549360405195865260208601521515604085015260608401521515608083015260a0820152f35b34610624576020366003190112610624576001600160a01b0361132a6114e3565b165f52600160205260405f2080549067ffffffffffffffff8211611451576040519161135c60208260051b0184611558565b8083526020830180925f5260205f205f915b8383106113f2578486604051918291602083019060208452518091526040830191905f5b8181106113a0575050500390f35b91935091602060c060019260a0875180518352848101518584015260408101511515604084015260608101516060840152608081015115156080840152015160a0820152019401910191849392611392565b600660206001926040516114058161153c565b85548152848601548382015260ff600287015416151560408201526003860154606082015260ff60048701541615156080820152600586015460a082015281520192019201919061136e565b634e487b7160e01b5f52604160045260245ffd5b34610624575f36600319011261062457602060ff60045460a01c166040519015158152f35b34610624576020366003190112610624576001600160a01b036114ab6114e3565b165f525f6020526040805f206001815491015482519182526020820152f35b34610624575f3660031901126106245780600560209252f35b600435906001600160a01b038216820361062457565b8054821015611512575f52600660205f20910201905f90565b634e487b7160e01b5f52603260045260245ffd5b6040906003190112610624576004359060243590565b60c0810190811067ffffffffffffffff82111761145157604052565b90601f8019910116810190811067ffffffffffffffff82111761145157604052565b67ffffffffffffffff811161145157601f01601f191660200190565b805180835260209291819084018484015e5f828201840152601f01601f1916010190565b6001600160a01b03165f908152602081905260409020805462015180420411156115e45750505f90565b6002915f520160205260ff60405f20541690565b91908201809211610d7e57565b91908203918211610d7e57565b6001600160a01b03165f9081526020819052604090208054620151804204111561163e57505f90600f90565b6001015490600f821061164f575f90565b81600f03600f8111610d7e5790565b5f198114610d7e5760010190565b81601f82011215610624578051906116838261157a565b926116916040519485611558565b8284526020838301011161062457815f9260208093018386015e8301015290565b5190811515820361062457565b6001600160a01b0316801561171d575f5160206117ed5f395f51905f5280546001600160a01b0319811683179091556001600160a01b03167f8be0079c531659141344cd1fd0a4f28419497f9722a3daafe3b4186f6b6457e05f80a3565b631e4fbdf760e01b5f525f60045260245ffd5b5f5160206117ed5f395f51905f52546001600160a01b0316330361175057565b63118cdaa760e01b5f523360045260245ffd5b60ff5f51602061182d5f395f51905f525460401c161561177f57565b631afcd79f60e31b5f5260045ffd5b906117b257508051156117a357805190602001fd5b63d6bda27560e01b5f5260045ffd5b815115806117e3575b6117c3575090565b639996b31560e01b5f9081526001600160a01b0391909116600452602490fd5b50803b156117bb56fe9016d09d72d40fdae2fd8ceac6b6234c7706214fd39c1cd1e609a0528c199300360894a13ba1a3210667c828492db98dca3e2076cc3735a920a3ca505d382bbcf0c57e16840df040f15088dc2f81fe391c3923bec73e23a9662efc9c229c6a00a2646970667358221220258d5d91f2d097c3e740a0570f925f429b589871357647c52e18adb53a0f466864736f6c634300081c0033f0c57e16840df040f15088dc2f81fe391c3923bec73e23a9662efc9c229c6a00","linkReferences":{}},"methodIdentifiers":{"MAX_DAILY_BATTLES()":"9577dbf6","MAX_DIFFICULTY()":"14cc282b","UPGRADE_INTERFACE_VERSION()":"ad3cb1cc","battlePvE(uint256,uint256)":"cae89bd1","cookiesToken()":"af61934f","difficultyRewards(uint256)":"e44c5d03","emergencyPause()":"51858e27","emergencyPaused()":"27c830a9","emergencyUnpause()":"4a4e3bd5","getBattleHistory(address)":"2e653c0f","getDailyStats(address)":"a16295b1","initialize(address,address,address)":"c0c53b8b","isDifficultyCompleted(address,uint256)":"88ba5986","nadmonNFT()":"98980ba3","owner()":"8da5cb5b","playerBattleHistory(address,uint256)":"31e6a67f","playerDailyStats(address)":"17e1a207","previewNPCStats(uint256)":"90eafc19","proxiableUUID()":"52d1902d","randomizer()":"f10fb584","renounceOwnership()":"715018a6","setDifficultyReward(uint256,uint256)":"4487c4b4","setRandomizer(address)":"767bcab5","transferOwnership(address)":"f2fde38b","upgradeToAndCall(address,bytes)":"4f1ef286","version()":"54fd4d50"},"id":57}