{"abi":[{"type":"constructor","inputs":[],"stateMutability":"nonpayable"},{"type":"function","name":"K_FACTOR","inputs":[],"outputs":[{"name":"","type":"uint256","internalType":"uint256"}],"stateMutability":"view"},{"type":"function","name":"LOSER_COOKIES","inputs":[],"outputs":[{"name":"","type":"uint256","internalType":"uint256"}],"stateMutability":"view"},{"type":"function","name":"MAX_DAILY_BATTLES","inputs":[],"outputs":[{"name":"","type":"uint256","internalType":"uint256"}],"stateMutability":"view"},{"type":"function","name":"MAX_RATING","inputs":[],"outputs":[{"name":"","type":"uint256","internalType":"uint256"}],"stateMutability":"view"},{"type":"function","name":"MIN_RATING","inputs":[],"outputs":[{"name":"","type":"uint256","internalType":"uint256"}],"stateMutability":"view"},{"type":"function","name":"STARTING_RATING","inputs":[],"outputs":[{"name":"","type":"uint256","internalType":"uint256"}],"stateMutability":"view"},{"type":"function","name":"UPGRADE_INTERFACE_VERSION","inputs":[],"outputs":[{"name":"","type":"string","internalType":"string"}],"stateMutability":"view"},{"type":"function","name":"WINNER_COOKIES","inputs":[],"outputs":[{"name":"","type":"uint256","internalType":"uint256"}],"stateMutability":"view"},{"type":"function","name":"battlePvP","inputs":[{"name":"attackerTokenId","type":"uint256","internalType":"uint256"},{"name":"defenderTokenId","type":"uint256","internalType":"uint256"}],"outputs":[],"stateMutability":"nonpayable"},{"type":"function","name":"cookiesToken","inputs":[],"outputs":[{"name":"","type":"address","internalType":"contract ICookiesToken"}],"stateMutability":"view"},{"type":"function","name":"getBattleHistory","inputs":[{"name":"player","type":"address","internalType":"address"}],"outputs":[{"name":"","type":"tuple[]","internalType":"struct PvPBattle.PvPResult[]","components":[{"name":"attacker","type":"address","internalType":"address"},{"name":"defender","type":"address","internalType":"address"},{"name":"attackerTokenId","type":"uint256","internalType":"uint256"},{"name":"defenderTokenId","type":"uint256","internalType":"uint256"},{"name":"attackerWon","type":"bool","internalType":"bool"},{"name":"attackerCookies","type":"uint256","internalType":"uint256"},{"name":"defenderCookies","type":"uint256","internalType":"uint256"},{"name":"attackerRatingChange","type":"int256","internalType":"int256"},{"name":"defenderRatingChange","type":"int256","internalType":"int256"},{"name":"wasCritical","type":"bool","internalType":"bool"},{"name":"timestamp","type":"uint256","internalType":"uint256"}]}],"stateMutability":"view"},{"type":"function","name":"getDailyBattleStatus","inputs":[{"name":"player","type":"address","internalType":"address"}],"outputs":[{"name":"battlesUsed","type":"uint256","internalType":"uint256"},{"name":"battlesRemaining","type":"uint256","internalType":"uint256"}],"stateMutability":"view"},{"type":"function","name":"getPlayerStats","inputs":[{"name":"player","type":"address","internalType":"address"}],"outputs":[{"name":"","type":"tuple","internalType":"struct PvPBattle.PlayerStats","components":[{"name":"rating","type":"uint256","internalType":"uint256"},{"name":"wins","type":"uint256","internalType":"uint256"},{"name":"losses","type":"uint256","internalType":"uint256"},{"name":"weeklyWins","type":"uint256","internalType":"uint256"},{"name":"weeklyBattles","type":"uint256","internalType":"uint256"},{"name":"lastResetWeek","type":"uint256","internalType":"uint256"},{"name":"dailyBattlesUsed","type":"uint256","internalType":"uint256"},{"name":"lastBattleDay","type":"uint256","internalType":"uint256"}]}],"stateMutability":"view"},{"type":"function","name":"getTopPlayersByRating","inputs":[{"name":"limit","type":"uint256","internalType":"uint256"}],"outputs":[{"name":"topPlayers","type":"address[]","internalType":"address[]"}],"stateMutability":"view"},{"type":"function","name":"initialize","inputs":[{"name":"_nadmonNFT","type":"address","internalType":"address"},{"name":"_cookiesToken","type":"address","internalType":"address"},{"name":"_randomizer","type":"address","internalType":"address"}],"outputs":[],"stateMutability":"nonpayable"},{"type":"function","name":"nadmonNFT","inputs":[],"outputs":[{"name":"","type":"address","internalType":"contract INadmonNFT"}],"stateMutability":"view"},{"type":"function","name":"owner","inputs":[],"outputs":[{"name":"","type":"address","internalType":"address"}],"stateMutability":"view"},{"type":"function","name":"playerBattleHistory","inputs":[{"name":"","type":"address","internalType":"address"},{"name":"","type":"uint256","internalType":"uint256"}],"outputs":[{"name":"attacker","type":"address","internalType":"address"},{"name":"defender","type":"address","internalType":"address"},{"name":"attackerTokenId","type":"uint256","internalType":"uint256"},{"name":"defenderTokenId","type":"uint256","internalType":"uint256"},{"name":"attackerWon","type":"bool","internalType":"bool"},{"name":"attackerCookies","type":"uint256","internalType":"uint256"},{"name":"defenderCookies","type":"uint256","internalType":"uint256"},{"name":"attackerRatingChange","type":"int256","internalType":"int256"},{"name":"defenderRatingChange","type":"int256","internalType":"int256"},{"name":"wasCritical","type":"bool","internalType":"bool"},{"name":"timestamp","type":"uint256","internalType":"uint256"}],"stateMutability":"view"},{"type":"function","name":"playerStats","inputs":[{"name":"","type":"address","internalType":"address"}],"outputs":[{"name":"rating","type":"uint256","internalType":"uint256"},{"name":"wins","type":"uint256","internalType":"uint256"},{"name":"losses","type":"uint256","internalType":"uint256"},{"name":"weeklyWins","type":"uint256","internalType":"uint256"},{"name":"weeklyBattles","type":"uint256","internalType":"uint256"},{"name":"lastResetWeek","type":"uint256","internalType":"uint256"},{"name":"dailyBattlesUsed","type":"uint256","internalType":"uint256"},{"name":"lastBattleDay","type":"uint256","internalType":"uint256"}],"stateMutability":"view"},{"type":"function","name":"proxiableUUID","inputs":[],"outputs":[{"name":"","type":"bytes32","internalType":"bytes32"}],"stateMutability":"view"},{"type":"function","name":"randomizer","inputs":[],"outputs":[{"name":"","type":"address","internalType":"contract INadmonRandomizer"}],"stateMutability":"view"},{"type":"function","name":"renounceOwnership","inputs":[],"outputs":[],"stateMutability":"nonpayable"},{"type":"function","name":"setRandomizer","inputs":[{"name":"newRandomizer","type":"address","internalType":"address"}],"outputs":[],"stateMutability":"nonpayable"},{"type":"function","name":"transferOwnership","inputs":[{"name":"newOwner","type":"address","internalType":"address"}],"outputs":[],"stateMutability":"nonpayable"},{"type":"function","name":"upgradeToAndCall","inputs":[{"name":"newImplementation","type":"address","internalType":"address"},{"name":"data","type":"bytes","internalType":"bytes"}],"outputs":[],"stateMutability":"payable"},{"type":"function","name":"version","inputs":[],"outputs":[{"name":"","type":"string","internalType":"string"}],"stateMutability":"pure"},{"type":"event","name":"Initialized","inputs":[{"name":"version","type":"uint64","indexed":false,"internalType":"uint64"}],"anonymous":false},{"type":"event","name":"OwnershipTransferred","inputs":[{"name":"previousOwner","type":"address","indexed":true,"internalType":"address"},{"name":"newOwner","type":"address","indexed":true,"internalType":"address"}],"anonymous":false},{"type":"event","name":"PlayerRatingUpdated","inputs":[{"name":"player","type":"address","indexed":true,"internalType":"address"},{"name":"oldRating","type":"uint256","indexed":false,"internalType":"uint256"},{"name":"newRating","type":"uint256","indexed":false,"internalType":"uint256"}],"anonymous":false},{"type":"event","name":"PvPBattleCompleted","inputs":[{"name":"attacker","type":"address","indexed":true,"internalType":"address"},{"name":"defender","type":"address","indexed":true,"internalType":"address"},{"name":"attackerTokenId","type":"uint256","indexed":false,"internalType":"uint256"},{"name":"defenderTokenId","type":"uint256","indexed":false,"internalType":"uint256"},{"name":"attackerWon","type":"bool","indexed":false,"internalType":"bool"},{"name":"attackerRatingChange","type":"uint256","indexed":false,"internalType":"uint256"},{"name":"defenderRatingChange","type":"uint256","indexed":false,"internalType":"uint256"},{"name":"wasCritical","type":"bool","indexed":false,"internalType":"bool"}],"anonymous":false},{"type":"event","name":"Upgraded","inputs":[{"name":"implementation","type":"address","indexed":true,"internalType":"address"}],"anonymous":false},{"type":"error","name":"AddressEmptyCode","inputs":[{"name":"target","type":"address","internalType":"address"}]},{"type":"error","name":"CannotBattleSelf","inputs":[]},{"type":"error","name":"DailyLimitReached","inputs":[]},{"type":"error","name":"ERC1967InvalidImplementation","inputs":[{"name":"implementation","type":"address","internalType":"address"}]},{"type":"error","name":"ERC1967NonPayable","inputs":[]},{"type":"error","name":"FailedCall","inputs":[]},{"type":"error","name":"InvalidInitialization","inputs":[]},{"type":"error","name":"NotInitializing","inputs":[]},{"type":"error","name":"NotYourNadmon","inputs":[]},{"type":"error","name":"OwnableInvalidOwner","inputs":[{"name":"owner","type":"address","internalType":"address"}]},{"type":"error","name":"OwnableUnauthorizedAccount","inputs":[{"name":"account","type":"address","internalType":"address"}]},{"type":"error","name":"UUPSUnauthorizedCallContext","inputs":[]},{"type":"error","name":"UUPSUnsupportedProxiableUUID","inputs":[{"name":"slot","type":"bytes32","internalType":"bytes32"}]},{"type":"error","name":"ZeroAddress","inputs":[]}],"bytecode":{"object":"0x60a080604052346100c257306080525f516020611b425f395f51905f525460ff8160401c166100b3576002600160401b03196001600160401b03821601610060575b604051611a7b90816100c78239608051818181610e030152610fd30152f35b6001600160401b0319166001600160401b039081175f516020611b425f395f51905f525581527fc7f505b2f371ae2175ee4913f4499e1f2633a7b5936321eed1cdaeb6115181d290602090a15f80610041565b63f92ee8a960e01b5f5260045ffd5b5f80fdfe60806040526004361015610011575f80fd5b5f5f3560e01c8063143416a1146114845780632e653c0f1461129d57806331e6a67f146111c1578063358a890d146111a65780633fb68c311461118a5780634f1ef28614610f575780634fd66eae14610e5757806352d1902d14610df157806354fd4d5014610daa578063715018a614610d43578063767bcab514610ced57806377519b7314610cd3578063863b705714610ca45780638da5cb5b14610c7057806390d354a91461052657806394e113ea146105095780639577dbf6146104ed57806398980ba3146104c4578063ad3cb1cc14610478578063af61934f1461044f578063bb0e4ea214610433578063c0c53b8b14610232578063c6d6106114610216578063cdafbbb614610190578063f10fb584146101675763f2fde38b14610138575f80fd5b34610164576020366003190112610164576101616101546114f5565b61015c61189a565b611829565b80f35b80fd5b50346101645780600319360112610164576004546040516001600160a01b039091168152602090f35b503461016457602036600319011261016457610100906040906001600160a01b036101b96114f5565b1681528060205220805490600181015490600281015460038201546004830154906005840154926007600686015495015495604051978852602088015260408701526060860152608085015260a084015260c083015260e0820152f35b5034610164578060031936011261016457602060405160088152f35b50346101645760603660031901126101645761024c6114f5565b6024356001600160a01b0381169081900361042f576044356001600160a01b038116919082900361042b575f516020611a265f395f51905f52549260ff8460401c16159367ffffffffffffffff811680159081610423575b6001149081610419575b159081610410575b506104015767ffffffffffffffff1981166001175f516020611a265f395f51905f5255846103d5575b506102e861195c565b6102f061195c565b6102f933611829565b61030161195c565b6001600160a01b0316801580156103cd575b80156103c5575b6103b6576001600160601b0360a01b60025416176002556001600160601b0360a01b60035416176003556001600160601b0360a01b600454161760045561035e5780f35b68ff0000000000000000195f516020611a265f395f51905f5254165f516020611a265f395f51905f52557fc7f505b2f371ae2175ee4913f4499e1f2633a7b5936321eed1cdaeb6115181d2602060405160018152a180f35b63d92e233d60e01b8552600485fd5b50821561031a565b508115610313565b68ffffffffffffffffff191668010000000000000001175f516020611a265f395f51905f52555f6102df565b63f92ee8a960e01b8652600486fd5b9050155f6102b6565b303b1591506102ae565b8691506102a4565b8380fd5b8280fd5b5034610164578060031936011261016457602060405160648152f35b50346101645780600319360112610164576003546040516001600160a01b039091168152602090f35b50346101645780600319360112610164576104c060405161049a604082611572565b60058152640352e302e360dc1b60208201526040519182916020835260208301906115b0565b0390f35b50346101645780600319360112610164576002546040516001600160a01b039091168152602090f35b50346101645780600319360112610164576020604051600f8152f35b50346101645780600319360112610164576020604051610bb88152f35b5034610a98576040366003190112610a98576004356024359060018060a01b0360025416604051906331a9108f60e11b8252836004830152602082602481845afa918215610a8d575f92610c4b575b506020602491604051928380926331a9108f60e11b82528760048301525afa908115610a8d575f91610c1c575b50336001600160a01b0390911603610c0d576001600160a01b03811692338414610bfe57620151804204335f525f60205260405f20600781019081548311610bef575b505050335f525f60205260405f2060068101600f81541015610be057815415610bd6575b855f525f60205260405f205415610bc2575b6106258154611642565b9055610630336118cd565b610639836118cd565b600481016106478154611642565b9055845f525f602052600460405f20016106618154611642565b905560025460405163a73a18f560e01b81526004810186905293906001600160a01b03165f85602481845afa908115610a8d575f5f905f925f985f95610b8f575b50905f6024926040519384809263a73a18f560e01b82528c60048301525afa8015610a8d575f925f925f905f925f94610b5c575b50600160a01b6001900360045416986040519d8e998a99630aa4178160e31b8b5260048b015260248a0152604489015260648801526084870161018090526101848701610722916115b0565b9360a487015260c486015260e48501526101048401526003198382030161012484015261074e916115b0565b336101448301528961016483015203815a93604094fa948515610a8d575f945f96610b13575b50825493875f525f6020525f61078e60408220548761190b565b12610b09576107aa603c5b8715610b015760ff60645b1661190b565b8060051b906020820503610aed5760649005600160ff1b8114610aed57805f0391895f525f60205260405f2054976107e28389611923565b87558a5f525f6020526107f98460405f2054611923565b8b5f525f60205260405f2055805f14610aa4576001870161081a8154611642565b90556003870161082a8154611642565b90558a5f525f602052600260405f20016108448154611642565b90555b6003546001600160a01b03168115610a9c576019905b803b15610a98576040516340c10f1960e01b815233600482015260248101929092525f908290604490829084905af18015610a8d57610a72575b506003546001600160a01b0316958c94939291908115610a6b5760085b883b15610a67576040516340c10f1960e01b81526001600160a01b0392909216600483015260248201529685908890604490829084905af1968715610a5c578c97610a31575b507f085cb242d173077345fec78226a8b4ecda1fd8cea669349bd5e7938b1eb921ec9a60409a999897969594939290916109b5908015610a28578c6019945b8215610a215760085b82519361094e85611538565b3385528c60208601528b8486015286606086015215159687608086015260a085015260c08401528660e084015287610100840152151597886101208401524261014084015233815260016020526109a783838320611735565b8a8152600160205220611735565b8a519586526020860152898501526060840152608083015260a08201527f8b05f2b96d72793f81020a6355ca14329399042f0dc515db0cbb61db104c58df60c03392a3548351918252602082015283833392a2838552846020528185205482519182526020820152a280f35b6019610942565b8c600894610939565b85809594939b9a999850610a489197969297611572565b61042f5790919293978a959697985f6108fa565b6040513d87823e3d90fd5b8680fd5b60196108b4565b610a82919493929c505f90611572565b5f9a9091925f610897565b6040513d5f823e3d90fd5b5f80fd5b60089061085d565b60028701610ab28154611642565b90558a5f525f602052600160405f2001610acc8154611642565b90558a5f525f602052600360405f2001610ae68154611642565b9055610847565b634e487b7160e01b5f52601160045260245ffd5b60ff5f6107a4565b6107aa6028610799565b945094506040843d604011610b54575b81610b3060409383611572565b81010312610a9857610b4d6020610b4686611728565b9501611728565b945f610774565b3d9150610b23565b935094505050610b7e91503d805f833e610b768183611572565b810190611696565b50959793965094509250905f6106d6565b91509350602497505f9250610bae91503d8084833e610b768183611572565b50919c509791969295509092506106a29050565b855f525f6020526103e860405f205561061b565b6103e88255610609565b63f402e5b160e01b5f5260045ffd5b60065f910155555f80806105e5565b63d1c3e16360e01b5f5260045ffd5b63e32aa82960e01b5f5260045ffd5b610c3e915060203d602011610c44575b610c368183611572565b810190611623565b5f6105a2565b503d610c2c565b6024919250610c68602091823d8411610c4457610c368183611572565b929150610575565b34610a98575f366003190112610a98575f5160206119e65f395f51905f52546040516001600160a01b039091168152602090f35b34610a98576020366003190112610a98576040610cc7610cc26114f5565b6115d4565b82519182526020820152f35b34610a98575f366003190112610a98576020604051818152f35b34610a98576020366003190112610a9857610d066114f5565b610d0e61189a565b6001600160a01b03168015610d34576001600160601b0360a01b60045416176004555f80f35b63d92e233d60e01b5f5260045ffd5b34610a98575f366003190112610a9857610d5b61189a565b5f5160206119e65f395f51905f5280546001600160a01b031981169091555f906001600160a01b03167f8be0079c531659141344cd1fd0a4f28419497f9722a3daafe3b4186f6b6457e08280a3005b34610a98575f366003190112610a98576104c0604051610dcb604082611572565b60058152640312e302e360dc1b60208201526040519182916020835260208301906115b0565b34610a98575f366003190112610a98577f00000000000000000000000000000000000000000000000000000000000000006001600160a01b03163003610e485760206040515f516020611a065f395f51905f528152f35b63703e46dd60e11b5f5260045ffd5b34610a98576020366003190112610a9857610e706114f5565b5f60e0604051610e7f81611555565b8281528260208201528260408201528260608201528260808201528260a08201528260c0820152015260018060a01b03165f525f60205261010060405f20604051610ec981611555565b8154918282526001810154602083019081526002820154604084019081526003830154606085019081526004840154916080860192835260058501549360a0870194855260e0600760068801549760c08a01988952015497019687526040519788525160208801525160408701525160608601525160808501525160a08401525160c08301525160e0820152f35b6040366003190112610a9857610f6b6114f5565b6024359067ffffffffffffffff8211610a985736602383011215610a9857816004013590610f9882611594565b91610fa66040519384611572565b80835260208301933660248383010111610a9857815f926024602093018737840101526001600160a01b037f000000000000000000000000000000000000000000000000000000000000000016308114908115611168575b50610e485761100b61189a565b6040516352d1902d60e01b81526001600160a01b0382169390602081600481885afa5f9181611134575b5061104d5784634c9c8ce360e01b5f5260045260245ffd5b805f516020611a065f395f51905f528692036111225750823b15611110575f516020611a065f395f51905f5280546001600160a01b031916821790557fbc7cd75a20ee27fd9adebab32041f755214dbc6bffa90cc0225b39da2e5c2d3b5f80a28251156110f7575f80916110ed945190845af43d156110ef573d916110d183611594565b926110df6040519485611572565b83523d5f602085013e611987565b005b606091611987565b5050503461110157005b63b398979f60e01b5f5260045ffd5b634c9c8ce360e01b5f5260045260245ffd5b632a87526960e21b5f5260045260245ffd5b9091506020813d602011611160575b8161115060209383611572565b81010312610a9857519086611035565b3d9150611143565b5f516020611a065f395f51905f52546001600160a01b03161415905084610ffe565b34610a98575f366003190112610a985760206040516103e88152f35b34610a98575f366003190112610a9857602060405160198152f35b34610a98576040366003190112610a98576111da6114f5565b6001600160a01b03165f90815260016020526040902080546024359190821015610a98576101609161120b9161150b565b5060018060a01b038154169060018060a01b03600182015416906002810154600382015460ff6004840154166005840154600685015491600786015493600887015495600a60ff60098a015416980154986040519a8b5260208b015260408a015260608901521515608088015260a087015260c086015260e08501526101008401521515610120830152610140820152f35b34610a98576020366003190112610a98576001600160a01b036112be6114f5565b165f52600160205260405f2080549067ffffffffffffffff82116114705760208260051b01916112f16040519384611572565b8083526020830180925f5260205f205f915b8383106113ce578486604051918291602083019060208452518091526040830191905f5b818110611335575050500390f35b9193509160206101606001926101408751858060a01b038151168352858060a01b03858201511685840152604081015160408401526060810151606084015260808101511515608084015260a081015160a084015260c081015160c084015260e081015160e084015261010081015161010084015261012081015115156101208401520151610140820152019401910191849392611327565b600b60206001926040516113e181611538565b848060a01b038654168152848060a01b03858701541683820152600286015460408201526003860154606082015260ff60048701541615156080820152600586015460a0820152600686015460c0820152600786015460e0820152600886015461010082015260ff6009870154161515610120820152600a860154610140820152815201920192019190611303565b634e487b7160e01b5f52604160045260245ffd5b34610a98576020366003190112610a985760405160206114a48183611572565b5f82525f368137604051918183928301818452825180915281604085019301915f5b8281106114d557505050500390f35b83516001600160a01b0316855286955093810193928101926001016114c6565b600435906001600160a01b0382168203610a9857565b8054821015611524575f52600b60205f20910201905f90565b634e487b7160e01b5f52603260045260245ffd5b610160810190811067ffffffffffffffff82111761147057604052565b610100810190811067ffffffffffffffff82111761147057604052565b90601f8019910116810190811067ffffffffffffffff82111761147057604052565b67ffffffffffffffff811161147057601f01601f191660200190565b805180835260209291819084018484015e5f828201840152601f01601f1916010190565b6001600160a01b03165f9081526020819052604090206007810154620151804204111561160357505f90600f90565b6006015490600f8210611614575f90565b81600f03600f8111610aed5790565b90816020910312610a9857516001600160a01b0381168103610a985790565b5f198114610aed5760010190565b81601f82011215610a985780519061166782611594565b926116756040519485611572565b82845260208383010111610a9857815f9260208093018386015e8301015290565b9161012083830312610a9857825167ffffffffffffffff8111610a9857826116bf918501611650565b92602081015167ffffffffffffffff8111610a9857836116e0918301611650565b9260408201519067ffffffffffffffff8211610a9857611701918301611650565b9160608201519160808101519160a08201519160c08101519161010060e083015192015190565b51908115158203610a9857565b805468010000000000000000811015611470576117579160018201815561150b565b91909161181657805182546001600160a01b039182166001600160a01b031991821617845560208301516001850180549190931691161790556040810151600283015560608101516003830155608081015160048301805460ff191691151560ff16919091179055600a906101409060a0810151600585015560c0810151600685015560e08101516007850155610100810151600885015561180f6101208201511515600986019060ff801983541691151516179055565b0151910155565b634e487b7160e01b5f525f60045260245ffd5b6001600160a01b03168015611887575f5160206119e65f395f51905f5280546001600160a01b0319811683179091556001600160a01b03167f8be0079c531659141344cd1fd0a4f28419497f9722a3daafe3b4186f6b6457e05f80a3565b631e4fbdf760e01b5f525f60045260245ffd5b5f5160206119e65f395f51905f52546001600160a01b031633036118ba57565b63118cdaa760e01b5f523360045260245ffd5b6001600160a01b03165f90815260208190526040902060058101805462093a804204929083116118fc57505050565b6004815f600381940155015555565b81810392915f138015828513169184121617610aed57565b5f8282019283129112908015821691151617610aed5760648112156119485750606490565b610bb88113156119595750610bb890565b90565b60ff5f516020611a265f395f51905f525460401c161561197857565b631afcd79f60e31b5f5260045ffd5b906119ab575080511561199c57805190602001fd5b63d6bda27560e01b5f5260045ffd5b815115806119dc575b6119bc575090565b639996b31560e01b5f9081526001600160a01b0391909116600452602490fd5b50803b156119b456fe9016d09d72d40fdae2fd8ceac6b6234c7706214fd39c1cd1e609a0528c199300360894a13ba1a3210667c828492db98dca3e2076cc3735a920a3ca505d382bbcf0c57e16840df040f15088dc2f81fe391c3923bec73e23a9662efc9c229c6a00a2646970667358221220367afd05c05f3aab67f099f4fb52e0329aa25f4918caf94a304d29af069f717f64736f6c634300081c0033f0c57e16840df040f15088dc2f81fe391c3923bec73e23a9662efc9c229c6a00","linkReferences":{}},"methodIdentifiers":{"K_FACTOR()":"77519b73","LOSER_COOKIES()":"c6d61061","MAX_DAILY_BATTLES()":"9577dbf6","MAX_RATING()":"94e113ea","MIN_RATING()":"bb0e4ea2","STARTING_RATING()":"3fb68c31","UPGRADE_INTERFACE_VERSION()":"ad3cb1cc","WINNER_COOKIES()":"358a890d","battlePvP(uint256,uint256)":"90d354a9","cookiesToken()":"af61934f","getBattleHistory(address)":"2e653c0f","getDailyBattleStatus(address)":"863b7057","getPlayerStats(address)":"4fd66eae","getTopPlayersByRating(uint256)":"143416a1","initialize(address,address,address)":"c0c53b8b","nadmonNFT()":"98980ba3","owner()":"8da5cb5b","playerBattleHistory(address,uint256)":"31e6a67f","playerStats(address)":"cdafbbb6","proxiableUUID()":"52d1902d","randomizer()":"f10fb584","renounceOwnership()":"715018a6","setRandomizer(address)":"767bcab5","transferOwnership(address)":"f2fde38b","upgradeToAndCall(address,bytes)":"4f1ef286","version()":"54fd4d50"},"id":58}